:100000000C9434000C9451000C9451000C94510049
:100010000C9451000C9451000C9451000C9451001C
:100020000C9451000C9451000C9451000C9451000C
:100030000C9451000C9451000C9451000C945100FC
:100040000C9451000C9451000C9451000C945100EC
:100050000C9451000C9451000C9451000C945100DC
:100060000C9451000C94510011241FBECFEFD8E026
:10007000DEBFCDBF13E0A0E0B1E0E0E6FFE002C0EC
:1000800005900D92AC3AB107D9F723E0ACEAB3E0A2
:1000900001C01D92A93BB207E1F70E942C060C9407
:1000A000AE070C9400008FEE90E00E94A60781E05E
:1000B00090E00E94A6078FEF90E00E94A6078FEFC6
:1000C00090E00E94A6078FEF90E00E94A6078FEFB6
:1000D00090E00E94A60781E090E00E94A6070895A4
:1000E0001F93CF93DF93182FC9E0D0E00E949E07A3
:1000F0002197E1F70E949E078093B2031D3149F4D6
:100100000E949E07C2EBD3E089830E949E078A83E8
:1001100010C0143071F40E949E07C2EBD3E08983B3
:100120000E949E078A830E949E078B830E949E07DF
:100130008C830E949E070E949E07DF91CF911F91A2
:1001400008950E94530080E090E00E94A60783E09B
:1001500090E00E94A60781E090E00E94A60780E060
:1001600090E00E94A60785E090E00E94A60781E04B
:100170000E9470000895CF93C82F0E94530080E022
:1001800090E00E94A60784E090E00E94A60782E02B
:1001900090E00E94A60780E090E00E94A60787E01A
:1001A0008C0F90E00E94A60782E00E947000CF9121
:1001B00008950E94530080E090E00E94A60788E026
:1001C00090E00E94A60784E090E00E94A60781E0EC
:1001D00090E00E94A60780E090E00E94A60781E0E0
:1001E00090E00E94A60780E090E00E94A6078FEFB3
:1001F00090E00E94A60781E090E00E94A6078EE0B2
:1002000090E00E94A60784E00E94700008950E947A
:10021000530080E090E00E94A60783E090E00E94F7
:10022000A60785E090E00E94A60780E090E00E948B
:10023000A60789E090E00E94A60785E00E94700072
:100240000895CF93DF93EC010E94530080E090E08B
:100250000E94A60786E090E00E94A60786E090E054
:100260000E94A60781E090E00E94A607CE018827A1
:100270000E94A607CE0199270E94A6072E96CE01BE
:1002800088270E94A607CE0199270E94A60786E02C
:100290000E947000DF91CF910895CF93DF93EC011E
:1002A0000E94530080E090E00E94A60787E090E063
:1002B0000E94A6078CE090E00E94A607CE01882746
:1002C0000E94A607CE0199270E94A60780E090E031
:1002D0000E94A60781E090E00E94A6076596CE01E5
:1002E00088270E94A607CE0199270E94A6078CE0C6
:1002F0000E947000DF91CF9108950E94530080E02A
:1003000090E00E94A60783E090E00E94A6078DE19E
:1003100090E00E94A60780E090E00E94A60781E29C
:1003200090E00E94A6078DE10E94700008958FEF73
:100330008093B8001092B900089584EA8093BC00BD
:10034000ECEBF0E080818823ECF708958093BB000C
:1003500084E88093BC00ECEBF0E080818823ECF72C
:100360000895CF93DF93C82FD62F0E949D018D2F24
:100370000E94A6018C2F0E94A60184E98093BC00F4
:10038000DF91CF910895CF93C82F8091B7038460F8
:100390008093B7036EE770E090E00E94B10180E1C6
:1003A0008A95F1F700C08C2F8295807F9091B703DA
:1003B000892B6EE770E090E00E94B1018091B70355
:1003C0008B7F8093B7036EE770E090E00E94B101ED
:1003D00080E18A95F1F700C0CF910895CF93C82F9F
:1003E0008091B7038E7F8093B7036EE770E090E053
:1003F0000E94B1018C2F82958F700E94C3018C2FB7
:100400000E94C301CF910895CF93C82F8091B70365
:1004100081608093B7036EE770E090E00E94B101C5
:100420008C2F82958F700E94C3018C2F0E94C30174
:10043000CF9108951092B7030E94970185EA9EE03C
:100440000197F1F700C0000083E00E94C30187EE2E
:1004500093E00197F1F700C0000083E00E94C30120
:1004600091E29A95F1F7000083E00E94C30189EFC1
:1004700090E00197F1F700C0000082E00E94C30104
:1004800089EF90E00197F1F700C0000088E20E9438
:10049000EE0189EF90E00197F1F700C000008CE0D9
:1004A0000E94EE0189EF90E00197F1F700C0000093
:1004B00086E00E94EE0189EF90E00197F1F700C01D
:1004C00000008091B70388608093B7036EE770E007
:1004D00090E00E94B1018091B7038D7F8093B703B4
:1004E0006EE770E090E00E94B101089581E00E9403
:1004F000EE0186E791E00197F1F700C00000089552
:1005000090E4699F800D112480680E94EE01089597
:10051000CF93DF93EC018881882331F021960E94EC
:10052000040289918111FBCFDF91CF9108950F9340
:100530001F93CF93DF938C01EB010E94760280E83A
:100540000E94EE01C8010E94880280EC0E94EE0128
:10055000CE010E948802DF91CF911F910F910895E3
:100560000F931F93CF93DF93D82F63E071E084E163
:1005700091E00E9497020E94A100C0E002EB13E00C
:100580004AC00E94A1002FEF81EE94E021508040EC
:100590009040E1F700C00000CF5FCA3039F465E257
:1005A00071E084E191E00E94970212C0C43139F4F5
:1005B00066E371E084E191E00E94970212C0CE31BF
:1005C00039F467E471E084E191E00E94970223C06E
:1005D000C83239F468E571E084E191E00E94970245
:1005E0001AC0C133C1F469E671E08AE791E00E9464
:1005F0009702EFEFFDE329E4E150F0402040E1F7FE
:1006000000C000001092B00361E173E08BE891E05C
:100610000E94970208C0F8018081823021F4C23321
:1006200009F0AFCFFAC08091B2038111F6C081E02A
:100630000E94BB00FFEF21EE84E0F150204080409B
:10064000E1F700C000008091B2038111D6C06CE9CF
:1006500071E08DEA91E00E9497029FEFEDE3F9E4EB
:100660009150E040F040E1F700C0000063E071E02D
:1006700084E191E00E9497020E94A100C0E002EB99
:1006800013E04AC00E94A1002FEF81EE94E02150B8
:1006900080409040E1F700C00000CF5FCA3039F4DD
:1006A00065E271E084E191E00E94970212C0C431DA
:1006B00039F466E371E084E191E00E94970212C090
:1006C000CE3139F467E471E084E191E00E94970251
:1006D00023C0C83239F468E571E084E191E00E94FA
:1006E00097021AC0C133C1F469E671E08AE791E06C
:1006F0000E949702EFEFFDE329E4E150F040204033
:10070000E1F700C000001092B00361E173E08BE8F4
:1007100091E00E94970208C0F8018081823021F4A4
:10072000C23309F0AFCF59C08091B203811155C0D7
:1007300082E00E94BB008091B20381113EC00E9402
:1007400007018091B203811128C08D2F90E00E9493
:1007500021018091B203811110C06EEB71E08FEC2A
:1007600091E00E949702FFEF27EA81E6F1502040D6
:100770008040E1F700C000005FC060EE71E081EFF3
:1007800091E00E9497029FEFE7EAF1E69150E04086
:10079000F040E1F700C000004FC062E072E081EF7E
:1007A00091E00E9497022FEF87EA91E62150804066
:1007B0009040E1F700C000003FC063E172E084E2D6
:1007C00092E00E949702EFEFF7EA21E6E150F04055
:1007D0002040E1F700C000002FC065E372E086E42E
:1007E00092E00E9497028FEF97EAE1E681509040F5
:1007F000E040E1F700C000001FC063E172E084E266
:1008000092E00E949702FFEF27EA81E6F150204034
:100810008040E1F700C000000FC065E372E086E4AD
:1008200092E00E9497029FEFE7EAF1E69150E040E4
:10083000F040E1F700C000001092B00361E173E006
:100840008BE891E00E949702DF91CF911F910F9169
:100850000895CF93C82F90E00E944D012FEF81EEB5
:1008600094E0215080409040E1F700C0000080916A
:10087000B20381112AC00E94760260E080E00E94EB
:10088000800287E592E00E94880261E080E00E9499
:10089000800288E692E00E94880261E086E00E9481
:1008A00080028C2F90E00E9488022FEF87EA91E669
:1008B000215080409040E1F700C0000061E173E00A
:1008C0008BE891E00E94970215C06FE672E080E825
:1008D00092E00E9497022FEF87EA91E62150804034
:1008E0009040E1F700C0000061E173E08BE891E027
:1008F0000E9497021092AF03CF9108950F931F9318
:10090000CF9363E071E084E191E00E9497020E943E
:10091000A100C0E002EB13E04EC00E94A1002FEF47
:1009200081EE94E0215080409040E1F700C000004B
:10093000CF5FCA3039F465E271E084E191E00E9452
:10094000970212C0C43139F466E371E084E191E0AA
:100950000E94970212C0CE3139F467E471E084E15D
:1009600091E00E94970227C0C83239F468E571E02F
:1009700084E191E00E9497021EC0C233E1F469E66F
:1009800071E08AE791E00E949702EFEFFDE329E42E
:10099000E150F0402040E1F700C000001092B103A8
:1009A0001092B0031092AF0361E173E08BE891E025
:1009B0000E94970205C0F8018081823009F4ADCF12
:1009C0008091B2038111A8C081E00E94BB00FFEFBB
:1009D00021EE84E0F15020408040E1F700C00000AB
:1009E0008091B203811188C00E94D9009FEFE1EE8F
:1009F000F4E09150E040F040E1F700C00000809149
:100A0000B203811169C08091B003811104C080914B
:100A1000AF038823F9F0E2EBF3E0818190E0982FB7
:100A200088272281820F911D2091000130910101C0
:100A30008217930741F481E08093AE031092B103D3
:100A40001092AF0378C01092AE031092B1031092CF
:100A5000AF0371C0E2EBF3E0038110E0102F002739
:100A60008481080F111D0E94760260E080E00E94E0
:100A7000800281E992E00E94880261E080E00E94A9
:100A8000800282EA92E00E94880261E08BE00E948C
:100A90008002C8010E94880261E08FE00E9480020B
:100AA0008EEA92E00E94880295B188E0892785B994
:100AB0002FEF8BE792E9215080409040E1F700C092
:100AC000000061E173E080EB92E00E9497021092D7
:100AD000B103109202012FC062EC72E083ED92E04C
:100AE0000E949702EFEFF7EA21E6E150F040204044
:100AF000E1F700C000001FC063E172E084E292E011
:100B00000E9497028FEF97EAE1E681509040E04023
:100B1000E1F700C000000FC065E372E086E492E0F8
:100B20000E949702FFEF27EA81E6F15020408040C3
:100B3000E1F700C000001092AF031092B0031092D2
:100B4000B10380910201811106C061E173E08BE87D
:100B500091E00E949702CF911F910F910895CF933A
:100B60000E94760260E080E00E94800284EE92E0C3
:100B70000E9488026BE080E00E94800281E090E0A9
:100B80000E94880281E08093AD03C1E04AC01999B8
:100B900015C0CF3F49F46BE080E00E9480028FEFE8
:100BA00090E00E9488023DC0CF5F6BE080E00E9431
:100BB00080028C2F90E00E94880233C01A992BC0CB
:100BC000CA30A1F40E94760260E080E00E948002B8
:100BD00084EE92E00E9488026BE080E00E94800236
:100BE00089E090E00E948802C9E01BC0C13049F44E
:100BF0006BE080E00E94800281E090E00E94880229
:100C000010C0C1506BE080E00E9480028C2F90E009
:100C10000E94880206C0189904C01092AD038C2F60
:100C200004C08091AD038111B2CFCF9108950E948D
:100C30007D012FEF81EE94E0215080409040E1F75C
:100C400000C00000E2EBF3E0818190E0982F88275C
:100C50002281820F911D08950F931F93CF93DF93ED
:100C60000E941A022FEF80E792E0215080409040CE
:100C7000E1F700C000000E948B0788E084B987E09C
:100C800085B960EF72E081E093E00E9497022FEF58
:100C900087EA91E6215080409040E1F700C00000D3
:100CA0000E941706892B09F562E173E083E293E065
:100CB0000E9497022FEF83ED90E3215080409040F7
:100CC000E1F700C0000081E08093B1038093B0039E
:100CD0008091B003882349F0C0E0D1E088810E9470
:100CE000B0028091B0038111F9CF61E173E08BE82C
:100CF00091E00E94970211E008E0C0E0D1E080910D
:100D00000201882309F4E6C0189912C08091B1034A
:100D100081110EC01093B1031092AC038091B10306
:100D2000882331F00E947E048091B1038111FACFB3
:100D3000199944C08091B003811140C01093B00351
:100D400064E373E086E493E00E9497020E947E04CD
:100D50002FEF87EA91E6215080409040E1F700C0F4
:100D600000008091B003811107C061E173E08BE85E
:100D700091E00E949702C8C08091AE03882339F0A9
:100D80000E94AF058093B8030E94B00217C067E5C8
:100D900073E088E693E00E9497021092AF032FEF72
:100DA00087EA91E6215080409040E1F700C00000C2
:100DB00061E173E08BE891E00E9497021A999FCF5E
:100DC0008091AF0381119BCF1093AF0364E373E075
:100DD00086E493E00E9497020E947E042FEF87EA48
:100DE00091E6215080409040E1F700C000008091E2
:100DF000AF03811107C061E173E08BE891E00E94CD
:100E0000970282C08091AE03882309F44BC00E94F0
:100E1000AF058093B803482F50E020910001309136
:100E2000010142175307C9F569E773E08AE893E0C7
:100E30000E9497022FEF87EA91E621508040904070
:100E4000E1F700C0000061E173E08BE993E00E94EC
:100E50009702189914C061E173E08BE891E00E9459
:100E600097021092AF031092AE032FEF83EC99E03C
:100E7000215080409040E1F700C0000040CF1A9917
:100E8000E8CF88810E94B0021092AE0361E173E066
:100E90008BE891E00E94970232CF0E9429041092C1
:100EA000AE032DCF67E573E088E693E00E949702DA
:100EB0001092AF032FEF87EA91E6215080409040D7
:100EC000E1F700C0000061E173E08BE891E00E946F
:100ED000970215CF189913CF1093020185B180277F
:100EE00085B961E173E08BE891E00E9497022FEFF2
:100EF00083E294EF215080409040E1F700C0000071
:100F000085B1802785B9FBCE80E090E0DF91CF915D
:100F10001F910F910895519A50981092C50080E149
:100F20008093C400E1ECF0E0808188608083808160
:100F30008061808386E08093C2000895E0ECF0E059
:100F400080818823ECF78091C6000895E0ECF0E002
:100F5000908195FFFDCF8093C6000895F894FFCF50
:100F6000010001536B616E6F77616E69653A2D2DDB
:100F70002D2D2D002020556D696573632070616CE7
:100F80006563202000536B616E6F77616E69653A0F
:100F9000202D2D2D2D00536B616E6F77616E69656D
:100FA0003A20202D2D2D00536B616E6F77616E6995
:100FB000653A2020202D2D00536B616E6F77616E96
:100FC00069653A202020202D0020637A79746E69AB
:100FD0006B75206C696E6969200020204272616B1C
:100FE0002070616C6361206E6120002044727A770A
:100FF00069207A616D6B6E69657465002020756D7E
:10100000696573632070616C656320200020202077
:1010100052617A206A65737A637A652020002070B5
:10102000616C636120772062617A6965212000200C
:10103000506F6D79736C6E79207A617069732000DE
:10104000207A617069737520646F2062617A7920FB
:10105000002020426C616420706F64637A617320A9
:10106000200074776F727A656E6961206D6F6465B8
:101070006C750020206F6272617A752070616C63FC
:101080006120200020426C61642074776F727A6561
:101090006E696120005370726F62756A20706F6EA6
:1010A0006F776E6965002020204272616B2070614D
:1010B0006C636121202000205573756E6965746F23
:1010C0002070616C656320006F2049443A20002045
:1010D000207573756E61632070616C6361212000FF
:1010E000204E6965207564616C6F207369652020EE
:1010F000005A6E616C657A696F6E6F2070616C6505
:101100006300205A676F646E6F73633A2000250096
:101110002D2D44727A7769206F7477617274652D12
:101120002D0070616C636120772073797374656D35
:10113000696500204E6965207A6E616C657A696F19
:101140006E6F20005779626965727A2049443A00CF
:10115000205A616D6B7520737A7966726F77796D3D
:101160000020202020576974616A20773A202020CF
:10117000200041646D696E20706F74727A65626ED2
:10118000792100205069657277737A6520757A79C4
:101190006369650020202020646C613A2041444D41
:1011A000494E20202000205770726F7761647A20AA
:1011B0006F646369736B0020202020646F3A2041C4
:1011C000444D494E2020200050616C6563206E69BB
:1011D00065206E616C657A790070616C656320646E
:1011E0006C612041444D494E3F002020437A7920D4
:1011F0006E6164706973616320200042312D204E5E
:0C1200004945202042322D2054414B0073
:00000001FF
