S01A000061726475696E6F5F626F6F746C6F616465722E737265638E
S11300000C9434000C9451000C9451000C94510045
S11300100C9451000C9451000C9451000C94510018
S11300200C9451000C9451000C9451000C94510008
S11300300C9451000C9451000C9451000C945100F8
S11300400C9451000C9451000C9451000C945100E8
S11300500C9451000C9451000C9451000C945100D8
S11300600C9451000C94510011241FBECFEFD8E022
S1130070DEBFCDBF13E0A0E0B1E0ECE6F0E102C0EA
S113008005900D92AE3CB107D9F723E0AEECB3E096
S113009001C01D92AB3DB207E1F70E947D060C94AE
S11300A034080C9400008FEE90E00E94EC0781E08D
S11300B090E00E94EC078FEF90E00E94EC078FEF36
S11300C090E00E94EC078FEF90E00E94EC078FEF26
S11300D090E00E94EC0781E090E00E94EC07089514
S11300E01F93CF93DF93182FC9E0D0E00E94E40759
S11300F02197E1F70E94E4078093D4031D3149F46A
S11301000E94E407C4EDD3E089830E94E4078A8354
S113011010C0143071F40E94E407C4EDD3E0898365
S11301200E94E4078A830E94E4078B830E94E40709
S11301308C830E94E4070E94E407DF91CF911F9112
S113014008950E94530080E090E00E94EC0783E051
S113015090E00E94EC0781E090E00E94EC0780E0D0
S113016090E00E94EC0785E090E00E94EC0781E0BB
S11301700E9470000895CF93C82F0E94530080E01E
S113018090E00E94EC0784E090E00E94EC0782E09B
S113019090E00E94EC078C2F90E00E94EC0780E036
S11301A090E00E94EC0787E08C0F90E00E94EC073F
S11301B082E00E947000CF9108950E94530080E075
S11301C090E00E94EC0788E090E00E94EC0784E055
S11301D090E00E94EC0781E090E00E94EC0780E050
S11301E090E00E94EC0781E090E00E94EC0780E040
S11301F090E00E94EC078FEF90E00E94EC0781E012
S113020090E00E94EC078EE090E00E94EC0784E00E
S11302100E94700008950E94530080E090E00E94C4
S1130220EC0783E090E00E94EC0785E090E00E94F8
S1130230EC0780E090E00E94EC0789E090E00E94E7
S1130240EC0785E00E9470000895CF93DF93EC01E2
S11302500E94530080E090E00E94EC0786E090E06A
S11302600E94EC0786E090E00E94EC0781E090E0B9
S11302700E94EC07CE0188270E94EC07CE01992743
S11302800E94EC072E96CE0188270E94EC07CE012F
S113029099270E94EC0786E00E947000DF91CF91BD
S11302A00895CF93DF93EC010E94530080E090E027
S11302B00E94EC0787E090E00E94EC078CE090E05D
S11302C00E94EC07CE0188270E94EC07CE019927F3
S11302D00E94EC0780E090E00E94EC0781E090E04F
S11302E00E94EC076596CE0188270E94EC07CE0198
S11302F099270E94EC078CE00E947000DF91CF9157
S113030008950E94530080E090E00E94EC0783E08F
S113031090E00E94EC078DE190E00E94EC0780E001
S113032090E00E94EC0781E290E00E94EC078DE1EE
S11303300E94700008958FEF8093B8001092B90066
S1130340089584EA8093BC00ECEBF0E0808188237C
S1130350ECF708958093BB0084E88093BC00ECEB39
S1130360F0E080818823ECF70895CF93DF93C82FC2
S1130370D62F0E94A1018D2F0E94AA018C2F0E94CA
S1130380AA0184E98093BC00DF91CF910895CF93B3
S1130390C82F8091D90384608093D9036EE770E0FD
S11303A090E00E94B50180E18A95F1F700C08C2F9E
S11303B08295807F9091D903892B6EE770E090E05D
S11303C00E94B5018091D9038B7F8093D9036EE796
S11303D070E090E00E94B50180E18A95F1F700C0D9
S11303E0CF910895CF93C82F8091D9038E7F8093A6
S11303F0D9036EE770E090E00E94B5018C2F8295DE
S11304008F700E94C7018C2F0E94C701CF9108955D
S1130410CF93C82F8091D90381608093D9036EE76D
S113042070E090E00E94B5018C2F82958F700E943D
S1130430C7018C2F0E94C701CF9108951092D90350
S11304400E949B0185EA9EE00197F1F700C000003D
S113045083E00E94C70187EE93E00197F1F700C0A3
S1130460000083E00E94C70191E29A95F1F7000031
S113047083E00E94C70189EF90E00197F1F700C083
S1130480000082E00E94C70189EF90E00197F1F734
S113049000C0000088E20E94F20189EF90E0019719
S11304A0F1F700C000008CE00E94F20189EF90E0B7
S11304B00197F1F700C0000086E00E94F20189EF85
S11304C090E00197F1F700C000008091D9038860A3
S11304D08093D9036EE770E090E00E94B5018091AB
S11304E0D9038D7F8093D9036EE770E090E00E947A
S11304F0B501089581E00E94F20186E791E0019739
S1130500F1F700C00000089590E4699F800D112464
S113051080680E94F2010895CF93DF93EC018881F3
S1130520882331F021960E94080289918111FBCF22
S1130530DF91CF9108950F931F93CF93DF938C0195
S1130540EB010E947A0280E80E94F201C8010E9435
S11305508C0280EC0E94F201CE010E948C02DF9199
S1130560CF911F910F9108950F931F93CF93DF9312
S1130570D82F63E071E084E191E00E949B020E9425
S1130580A100C0E004ED13E04AC00E94A1002FEFD7
S113059081EE94E0215080409040E1F700C00000DB
S11305A0CF5FCA3039F465E271E084E191E00E94E2
S11305B09B0212C0C43139F466E371E084E191E036
S11305C00E949B0212C0CE3139F467E471E084E1E9
S11305D091E00E949B0223C0C83239F468E571E0BF
S11305E084E191E00E949B021AC0C133C1F469E620
S11305F071E08AE791E00E949B02EFEFFDE329E4BA
S1130600E150F0402040E1F700C000001092D20316
S113061060E173E08BE891E00E949B0205C0F80161
S11306208081823009F4B1CF8091D4038111F5C067
S113063081E00E94BB00FFEF21EE84E0F1502040F6
S11306408040E1F700C000008091D4038111D5C03F
S11306506BE971E08CEA91E00E949B029FEFEDE36D
S1130660F9E49150E040F040E1F700C0000063E09D
S113067071E084E191E00E949B020E94A100C0E02D
S113068004ED13E04AC00E94A1002FEF81EE94E034
S1130690215080409040E1F700C00000CF5FCA3095
S11306A039F465E271E084E191E00E949B0212C09A
S11306B0C43139F466E371E084E191E00E949B0265
S11306C012C0CE3139F467E471E084E191E00E9414
S11306D09B0223C0C83239F468E571E084E191E0FB
S11306E00E949B021AC0C133C1F469E671E08AE733
S11306F091E00E949B02EFEFFDE329E4E150F0401A
S11307002040E1F700C000001092D20360E173E0E2
S11307108BE891E00E949B0205C0F8018081823041
S113072009F4B1CF8091D403811157C082E00E94B3
S1130730BB008091D403811140C00E940B018091C1
S1130740D40381112AC08D2F90E00E94250180914D
S1130750D403811112C06DEB71E08EEC91E00E9424
S11307609B021092CE03FFEF27EA81E6F15020406E
S11307708040E1F700C000005FC06FED71E080EFE2
S113078091E00E949B029FEFE7EAF1E69150E0407E
S1130790F040E1F700C000004FC061E072E080EF7C
S11307A091E00E949B022FEF87EA91E6215080405E
S11307B09040E1F700C000003FC062E172E083E2D4
S11307C092E00E949B02EFEFF7EA21E6E150F0404D
S11307D02040E1F700C000002FC064E372E085E42C
S11307E092E00E949B028FEF97EAE1E681509040ED
S11307F0E040E1F700C000001FC062E172E083E264
S113080092E00E949B02FFEF27EA81E6F15020402C
S11308108040E1F700C000000FC064E372E085E4AB
S113082092E00E949B029FEFE7EAF1E69150E040DC
S1130830F040E1F700C000001092D2038091CE0393
S1130840811106C060E173E08BE891E00E949B0295
S1130850DF91CF911F910F910895CF93C82F90E00E
S11308600E9451012FEF81EE94E02150804090408E
S1130870E1F700C000008091D40381112AC00E94D6
S11308807A0260E080E00E94840286E592E00E94A1
S11308908C0261E080E00E94840287E692E00E947C
S11308A08C0261E086E00E9484028C2F90E00E941A
S11308B08C022FEF87EA91E6215080409040E1F7C7
S11308C000C0000060E173E08BE891E00E949B02AD
S11308D015C06EE672E08FE792E00E949B022FEF54
S11308E087EA91E6215080409040E1F700C0000083
S11308F060E173E08BE891E00E949B021092D103C7
S1130900CF910895EF92FF921F93CF93DF9300D07E
S11309101F92CDB7DEB763E071E084E191E00E94FD
S11309209B020E94A10010E00F2EF4EDEF2EF3E0E5
S1130930FF2EF02D4EC00E94A1002FEF81EE94E017
S1130940215080409040E1F700C000001F5F1A3042
S113095039F465E271E084E191E00E949B0212C0E7
S1130960143139F466E371E084E191E00E949B0262
S113097012C01E3139F467E471E084E191E00E9411
S11309809B0227C0183239F468E571E084E191E0F4
S11309900E949B021EC01233E1F469E671E08AE70B
S11309A091E00E949B02EFEFFDE329E4E150F04067
S11309B02040E1F700C000001092D3031092D2034C
S11309C01092D10360E173E08BE891E00E949B02F6
S11309D0D9C0F7018081823009F4ADCF8111B3C051
S11309E081E00E94BB00FFEF21EE84E0F150204043
S11309F08040E1F700C000008091D403811193C0CE
S1130A000E94DD009FEFE1EEF4E09150E040F04001
S1130A10E1F700C000008091D403811174C080917B
S1130A20D203811104C08091D1038823F9F0E4ED4D
S1130A30F3E0818190E0982F88272281820F911D15
S1130A4020910001309101018217930741F481E064
S1130A508093D0031092D3031092D10383C01092D9
S1130A60D0031092D3031092D1037CC08091CE03A3
S1130A70811178C0E4EDF3E0E380F12CFE2CEE2448
S1130A808481E80EF11C0E947A0260E080E00E94FA
S1130A90840280E992E00E948C0261E080E00E947E
S1130AA0840281EA92E00E948C0261E08BE00E9461
S1130AB084024AE050E0BE016F5F7F4FC7010E948D
S1130AC0F4070E948C0261E08FE00E9484028DEAA8
S1130AD092E00E948C0295B188E0892785B92FEFB6
S1130AE08BE792E9215080409040E1F700C000007C
S1130AF060E173E08FEA92E00E949B021092D303BC
S1130B00109202012FC061EC72E082ED92E00E942B
S1130B109B02EFEFF7EA21E6E150F0402040E1F7D5
S1130B2000C000001FC062E172E083E292E00E9414
S1130B309B028FEF97EAE1E681509040E040E1F7B5
S1130B4000C000000FC064E372E085E492E00E94FC
S1130B509B02FFEF27EA81E6F15020408040E1F755
S1130B6000C000001092D1031092D2031092D3035C
S1130B7080910201882331F060E173E08BE891E019
S1130B800E949B020F900F900F90DF91CF911F91C5
S1130B90FF90EF9008951F93CF93DF9300D01F929F
S1130BA0CDB7DEB70E947A0260E080E00E94840242
S1130BB083EE92E00E948C026BE080E00E9484024B
S1130BC04AE050E0BE016F5F7F4F81E090E00E94F9
S1130BD0F4070E948C0281E08093CF0311E06DC082
S1130BE0199923C01F3F81F46BE080E00E948402C6
S1130BF04AE050E0BE016F5F7F4F8FEF90E00E94AC
S1130C00F4070E948C0259C01F5F6BE080E00E94D1
S1130C1084024AE050E0BE016F5F7F4F812F90E075
S1130C200E94F4070E948C0248C01A9940C01A30EE
S1130C30D9F40E947A0260E080E00E94840283EE8C
S1130C4092E00E948C026BE080E00E9484024AE001
S1130C5050E0BE016F5F7F4F89E090E00E94F4078F
S1130C600E948C0219E029C0113081F46BE080E00D
S1130C700E9484024AE050E0BE016F5F7F4F81E032
S1130C8090E00E94F4070E948C0217C011506BE0A0
S1130C9080E00E9484024AE050E0BE016F5F7F4F13
S1130CA0812F90E00E94F4070E948C0206C01899DC
S1130CB004C01092CF03812F04C08091CF0381110F
S1130CC08FCF0F900F900F90DF91CF911F910895C8
S1130CD00E9481012FEF81EE94E0215080409040EA
S1130CE0E1F700C00000E4EDF3E0818190E0982F8B
S1130CF088272281820F911D08950E941E022FEFE2
S1130D0080E792E0215080409040E1F700C000006D
S1130D100E94D10788E084B987E085B96FEE72E05C
S1130D2080E093E00E949B02EFEFF7EA21E6E150B6
S1130D30F0402040E1F700C000000E946806892BC3
S1130D40F1F48091CE038091CE038823C1F0C0E0FA
S1130D50D1E061E173E082E293E00E949B028FEFB5
S1130D609DE3E9E481509040E040E1F700C00000D9
S1130D7088810E94B4028091CE038111EACF60E1A0
S1130D8073E08BE891E00E949B02C1E0D8E000E0B0
S1130D9011E080910201882309F4E8C0189908C081
S1130DA08091D303811104C0C093D3030E948204B1
S1130DB019995AC08091D203811156C0C093D203AD
S1130DC063E373E085E493E00E949B02FFEF23ED6D
S1130DD080E3F15020408040E1F700C000000E9411
S1130DE082048091D003882341F10E94CB05809333
S1130DF0DA03482F50E0209100013091010142179D
S1130E005307C1F465E573E087E693E00E949B0213
S1130E109FEFE7EAF1E69150E040F040E1F700C0CF
S1130E2000001092D20360E173E08BE891E00E942D
S1130E309B021AC00E94B40217C068E773E089E8F5
S1130E4093E00E949B021092D2032FEF87EA91E66F
S1130E50215080409040E1F700C0000060E173E061
S1130E608BE891E00E949B021A9993CF8091D10361
S1130E7081118FCFC093D10363E373E085E493E0E2
S1130E800E949B020E948204EFEFF7EA21E6E15000
S1130E90F0402040E1F700C000008091D003882397
S1130EA009F44CC00E94CB058093DA03482F50E02C
S1130EB0209100013091010142175307D1F56AE9ED
S1130EC073E08BEA93E00E949B028FEF97EAE1E6DE
S1130ED081509040E040E1F700C0000060E173E021
S1130EE08CEB93E00E949B02189914C060E173E0BC
S1130EF08BE891E00E949B021092D1031092D003E0
S1130F00FFEF23EC89E0F15020408040E1F700C07E
S1130F1000003FCF1A99E8CFF80180810E94B40203
S1130F201092D00360E173E08BE891E00E949B0291
S1130F3030CF0E942D041092D0032BCF68E773E0CA
S1130F4089E893E00E949B021092D103FFEF27EA05
S1130F5081E6F15020408040E1F700C0000060E1EC
S1130F6073E08BE891E00E949B0213CF8091020111
S1130F7081110FCF18990DCFC093020185B18D2730
S1130F8085B960E173E08BE891E00E949B029FEFDA
S1130F90E3EDF0E39150E040F040E1F700C00000E1
S1130FA0F8CE519A50981092C50080E18093C40005
S1130FB0E1ECF0E0808188608083808180618083BF
S1130FC086E08093C2000895E0ECF0E080818823FD
S1130FD0ECF78091C6000895E0ECF0E0908195FF75
S1130FE0FDCF8093C60008954532510520F4423068
S1130FF010F00C94FF07FB011082CB010895BB276E
S11310004A3031F4992322F4BDE2909581959F4FA3
S11310100C940B08BB27FB015527AA27880F991F9F
S1131020AA1FA41710F0A41B83955051B9F7A05D13
S1131030AA3308F0A95DA193009779F7B111B19390
S11310401192CB010C942408DC01FC01672F7191EF
S11310507723E1F7329704C07C916D93708362919A
S10F1060AE17BF07C8F30895F894FFCF43
S113106C010001536B616E6F77616E69653A2D2DCA
S113107C2D2D2D002020556D696573632070616CD6
S113108C6563202000536B616E6F77616E69653AFE
S113109C202D2D2D2D00536B616E6F77616E69655C
S11310AC3A20202D2D2D00536B616E6F77616E6984
S11310BC653A2020202D2D00536B616E6F77616E85
S11310CC69653A202020202D0020637A79746E699A
S11310DC6B75206C696E6969200020204272616B0B
S11310EC2070616C6361206E61200044727A7769B0
S11310FC207A616D6B6E69657465002020756D696D
S113110C6573632070616C6563202000202020527D
S113111C617A206A65737A637A6520200020706195
S113112C6C636120772062617A696521200020500C
S113113C6F6D79736C6E79207A61706973200020FD
S113114C7A617069737520646F2062617A7920000A
S113115C2020426C616420706F64637A6173202078
S113116C0074776F727A656E6961206D6F64656C5B
S113117C750020206F6272617A752070616C6361F6
S113118C20200020426C61642074776F727A656E43
S113119C696120005370726F62756A20706F6E6F94
S11311AC776E6965002020204272616B2070616C3F
S11311BC636121202000205573756E6965746F205E
S11311CC70616C656320006F2049443A2000202034
S11311DC7573756E61632070616C636121200020EE
S11311EC4E6965207564616C6F20736965202000FD
S11311FC5A6E616C657A696F6E6F2070616C656391
S113120C00205A676F646E6F73633A200025002DBB
S113121C2D44727A7769206F7477617274652D2D01
S113122C0070616C636120772073797374656D69E8
S113123C6500204E6965207A6E616C657A696F6E03
S113124C6F20005779626965727A2049443A005AD2
S113125C616D6B7520737A7966726F77796D200086
S113126C20202020576974616A20773A202020209E
S113127C0041646D696E20706F74727A65626E7968
S113128C21005069657277737A6520757A79636980
S113129C65200020202020646C613A2041444D4993
S11312AC4E202020005770726F7761647A206F642F
S11312BC6369736B006F70657261636A61212028C6
S11312CC41444D494E290020204E6965646F7A775C
S11312DC6F6C6F6E6120200020202020646F3A20F8
S11312EC41444D494E2020200050616C6563206EB2
S11312FC6965206E616C657A790070616C65632038
S113130C646C612041444D494E3F002020437A795E
S113131C206E6164706973616320200042312D205A
S111132C4E4945202042322D2054414B0000F2
S9030000FC
