:100000000C9434000C9451000C9451000C94510049
:100010000C9451000C9451000C9451000C9451001C
:100020000C9451000C9451000C9451000C9451000C
:100030000C9451000C9451000C9451000C945100FC
:100040000C9451000C9451000C9451000C945100EC
:100050000C9451000C9451000C9451000C945100DC
:100060000C9451000C94510011241FBECFEFD8E026
:10007000DEBFCDBF11E0A0E0B1E0E8EDF7E002C0E7
:1000800005900D92AC3FB107D9F722E0ACEFB1E09B
:1000900001C01D92A930B207E1F70E945E030C94E3
:1000A000EA030C9400008FEE90E00E94E20381E0EE
:1000B00090E00E94E2038FEF90E00E94E2038FEF56
:1000C00090E00E94E2038FEF90E00E94E2038FEF46
:1000D00090E00E94E20381E090E00E94E203089534
:1000E0001F93CF93DF93182FC9E0D0E00E94DA036B
:1000F0002197E1F70E94DA03809302021D3149F44F
:100100000E94DA03C2E0D2E089830E94DA038A8384
:1001100010C0143071F40E94DA03C2E0D2E0898387
:100120000E94DA038A830E94DA038B830E94DA0337
:100130008C830E94DA030E94DA03DF91CF911F9132
:1001400008950E94530080E090E00E94E20383E063
:1001500090E00E94E20381E090E00E94E20380E0F0
:1001600090E00E94E20385E090E00E94E20381E0DB
:100170000E9470000895CF93C82F0E94530080E022
:1001800090E00E94E20384E090E00E94E20382E0BB
:1001900090E00E94E20380E090E00E94E20387E0AA
:1001A0008C0F90E00E94E20382E00E947000CF91E9
:1001B00008950E94530080E090E00E94E20388E0EE
:1001C00090E00E94E20384E090E00E94E20381E07C
:1001D00090E00E94E20380E090E00E94E20381E070
:1001E00090E00E94E20380E090E00E94E2038FEF43
:1001F00090E00E94E20381E090E00E94E2038EE042
:1002000090E00E94E20384E00E94700008958FEF66
:100210008093B8001092B900089584EA8093BC00DE
:10022000ECEBF0E080818823ECF708958093BB002D
:1002300084E88093BC00ECEBF0E080818823ECF74D
:100240000895CF93DF93C82FD62F0E940D018D2FD5
:100250000E9416018C2F0E94160184E98093BC0035
:10026000DF91CF910895CF93C82F809107028460CA
:10027000809307026EE770E090E00E94210180E128
:100280008A95F1F700C08C2F8295807F90910702AC
:10029000892B6EE770E090E00E94210180910702B7
:1002A0008B7F809307026EE770E090E00E9421014F
:1002B00080E18A95F1F700C0CF910895CF93C82FC0
:1002C000809107028E7F809307026EE770E090E0D6
:1002D0000E9421018C2F82958F700E9433018C2FF8
:1002E0000E943301CF910895CF93C82F80910702C8
:1002F0008160809307026EE770E090E00E94210128
:100300008C2F82958F700E9433018C2F0E943301B5
:10031000CF910895109207020E94070185EA9EE09E
:100320000197F1F700C0000083E00E94330187EEDF
:1003300093E00197F1F700C0000083E00E943301D1
:1003400091E29A95F1F7000083E00E94330189EF72
:1003500090E00197F1F700C0000082E00E943301B5
:1003600089EF90E00197F1F700C0000088E20E9459
:100370005E0189EF90E00197F1F700C000008CE08A
:100380000E945E0189EF90E00197F1F700C0000044
:1003900086E00E945E0189EF90E00197F1F700C0CE
:1003A0000000809107028860809307026EE770E08A
:1003B00090E00E942101809107028D7F80930702C7
:1003C0006EE770E090E00E942101089581E00E94B4
:1003D0005E0186E791E00197F1F700C00000089503
:1003E00090E4699F800D112480680E945E01089549
:1003F000CF93DF93EC018881882331F021960E940E
:10040000740189918111FBCFDF91CF910895CF9332
:10041000DF930E94A100809102028111A8C081E0B7
:100420000E94BB0080910202811185C00E94D90008
:1004300080910202811163C0809100028823E9F05B
:10044000E2E0F2E0818190E0982F88272281820FFC
:10045000911D20910001309101018217930731F421
:1004600081E08093FE0110920102C0C01092000250
:100470001092FE0110920102B9C0E2E0F2E0C381E5
:10048000D0E0DC2FCC278481C80FD11D0E94E6016B
:1004900060E080E00E94F00183E091E00E94F801BA
:1004A00061E080E00E94F00184E191E00E94F801A7
:1004B00061E08BE00E94F001CE010E94F80161E052
:1004C0008FE00E94F00180E291E00E94F8012FEF9E
:1004D00083E294EF215080409040E1F700C000009B
:1004E0000E94E60160E080E00E94F00182E291E07B
:1004F0000E94F801109201021092020177C00E943E
:10050000E60160E080E00E94F00184E391E00E9457
:10051000F80161E080E00E94F00185E491E00E9432
:10052000F8012FEF8BE792E9215080409040E1F7EE
:1005300000C000005BC00E94E60160E080E00E9415
:10054000F00186E591E00E94F80161E080E00E9400
:10055000F00187E691E00E94F8012FEF8BE792E926
:10056000215080409040E1F700C000003FC00E9451
:10057000E60160E080E00E94F00188E791E00E94DF
:10058000F80161E080E00E94F00189E891E00E94BA
:10059000F8012FEF8DE399E4215080409040E1F77E
:1005A00000C000008091FC018F5F8093FC018430CB
:1005B000E9F40E94E60160E080E00E94F0018AE92F
:1005C00091E00E94F80161E080E00E94F0018BEA76
:1005D00091E00E94F8012FEF87EA91E621508040D8
:1005E0009040E1F700C0000010920102DF91CF912E
:1005F0000895CF930E94E60160E080E00E94F00140
:100600008CEB91E00E94F8016BE080E00E94F00129
:1006100081E090E00E94F801C1E04AC01B9915C03A
:10062000CF3F49F46BE080E00E94F0018FEF90E053
:100630000E94F8013DC0CF5F6BE080E00E94F001B6
:100640008C2F90E00E94F80133C01C992BC0CA3057
:10065000A1F40E94E60160E080E00E94F0018CEBD2
:1006600091E00E94F8016BE080E00E94F00189E0D7
:1006700090E00E94F801C9E01BC0C11109C06BE005
:1006800080E00E94F00180E090E00E94F80110C03C
:10069000C1506BE080E00E94F0018C2F90E00E943E
:1006A000F80106C01D9904C01092FD018C2F04C0F2
:1006B0008091FD018111B2CFCF9108950E948A01EE
:1006C0002FEF80E792E0215080409040E1F700C09A
:1006D00000000E94C70360E080E00E94F0010E94D9
:1006E000E60188EC91E00E94F80161E080E00E9460
:1006F000F00189ED91E00E94F8012FEF87EA91E681
:10070000215080409040E1F700C000000E94E601C7
:1007100060E080E00E94F0018AEE91E00E94F80122
:10072000C1E080910201882329F11B990EC08091BC
:10073000010281110AC0C09301021092FC010E94C3
:100740000702809101028111FACF1C9908C08091A3
:100750000002811104C00E94F902809308021D99D1
:10076000E0CF8091FF018111DCCF0E94F9028093DC
:100770000802D7CF1B99D5CFC093020160E080E07B
:100780000E94F0018AEE91E00E94F801CACF519ACE
:1007900050981092C50080E18093C400E1ECF0E035
:1007A00080818860808380818061808386E08093FF
:1007B000C2000895E0ECF0E080818823ECF780919E
:1007C000C6000895E0ECF0E0908195FFFDCF8093A6
:0807D000C6000895F894FFCF64
:1007D8000100015A6E616C657A696F6E6F207061F5
:1007E8006C656300205A676F646E6F73633A20000C
:1007F80025002D2D44727A7769206F7477617274A1
:10080800652D2D00204E6965207A6E616C657A69C8
:100818006F6E6F200070616C63612077207379734D
:1008280074656D69650020426C61642074776F722D
:100838007A656E6961200020206F6272617A752086
:1008480070616C63612020002020204272616B205F
:1008580070616C6361212020005370726F62756A49
:1008680020706F6E6F776E6965005A6279742077B1
:1008780069656C652070726F6221002A2A2A2A2A0B
:100888002A2A2A2A2A2A2A2A2A2A2A0057796269F7
:1008980065727A2049443A00202020205769746103
:1008A8006A20773A2020202000205A616D6B75203D
:1008B800737A7966726F77796D002044727A7769F6
:0C08C800207A616D6B6E6965746500003C
:00000001FF
