S01A000061726475696E6F5F626F6F746C6F616465722E737265638E
S11300000C9434000C9451000C9451000C94510045
S11300100C9451000C9451000C9451000C94510018
S11300200C9451000C9451000C9451000C94510008
S11300300C9451000C9451000C9451000C945100F8
S11300400C9451000C9451000C9451000C945100E8
S11300500C9451000C9451000C9451000C945100D8
S11300600C9451000C94510011241FBECFEFD8E022
S1130070DEBFCDBF13E0A0E0B1E0EEEFF0E102C0DF
S113008005900D92AC3CB107D9F723E0ACECB3E09A
S113009001C01D92AC3DB207E1F70E94B6060C9474
S11300A07D080C9400008FEE90E00E94260881E009
S11300B090E00E9426088FEF90E00E9426088FEFC0
S11300C090E00E9426088FEF90E00E9426088FEFB0
S11300D090E00E94260881E090E00E94260808959E
S11300E01F93CF93DF93182FC9E0D0E00E941E081E
S11300F02197E1F70E941E088093D2031D3149F431
S11301000E941E08C2EDD3E089830E941E088A83E0
S113011010C0143071F40E941E08C2EDD3E089832C
S11301200E941E088A830E941E088B830E941E0858
S11301308C830E941E080E941E08DF91CF911F919C
S113014008950E94530080E090E00E94260883E016
S113015090E00E94260881E090E00E94260880E05A
S113016090E00E94260885E090E00E94260881E045
S11301700E9470000895CF93C82F0E94530080E01E
S113018090E00E94260884E090E00E94260882E025
S113019090E00E9426088C2F90E00E94260880E0C0
S11301A090E00E94260887E08C0F90E00E942608C9
S11301B082E00E947000CF9108950E94530080E075
S11301C090E00E94260888E090E00E94260884E0DF
S11301D090E00E94260881E090E00E94260880E0DA
S11301E090E00E94260881E090E00E94260880E0CA
S11301F090E00E9426088FEF90E00E94260881E09C
S113020090E00E9426088EE090E00E94260884E098
S11302100E94700008950E94530080E090E00E94C4
S1130220260883E090E00E94260885E090E00E9482
S1130230260880E090E00E94260889E090E00E9471
S1130240260885E00E9470000895CF93DF93EC01A7
S11302500E94530080E090E00E94260886E090E02F
S11302600E94260886E090E00E94260881E090E043
S11302700E942608CE0188270E942608CE019927CD
S11302800E9426082E96CE0188270E942608CE01B9
S113029099270E94260886E00E947000DF91CF9182
S11302A00895CF93DF93EC010E94530080E090E027
S11302B00E94260887E090E00E9426088CE090E0E7
S11302C00E942608CE0188270E942608CE0199277D
S11302D00E94260880E090E00E94260881E090E0D9
S11302E00E9426086596CE0188270E942608CE0122
S11302F099270E9426088CE00E947000DF91CF911C
S113030008950E94530080E090E00E94260883E054
S113031090E00E9426088DE190E00E94260880E08B
S113032090E00E94260881E290E00E9426088DE178
S11303300E94700008958FEF8093B8001092B90066
S1130340089584EA8093BC00ECEBF0E0808188237C
S1130350ECF708958093BB0084E88093BC00ECEB39
S1130360F0E080818823ECF70895CF93DF93C82FC2
S1130370D62F0E94A1018D2F0E94AA018C2F0E94CA
S1130380AA0184E98093BC00DF91CF910895CF93B3
S1130390C82F8091D70384608093D7036EE770E001
S11303A090E00E94B50130E13A95F1F700C0209148
S11303B0D70330E1C39FC00111246EE770E0822BA4
S11303C00E94B5018091D7038B7F8093D7036EE79A
S11303D070E090E00E94B50180E18A95F1F700C0D9
S11303E0CF910895CF93C82F8091D7038E7F8093A8
S11303F0D7036EE770E090E00E94B5018C2F8295E0
S11304008F700E94C7018C2F0E94C701CF9108955D
S1130410CF93C82F8091D70381608093D7036EE771
S113042070E090E00E94B5018C2F82958F700E943D
S1130430C7018C2F0E94C701CF9108951092D70352
S11304400E949B0185EA9EE00197F1F700C000003D
S113045083E00E94C70187EE93E00197F1F700C0A3
S1130460000083E00E94C70191E29A95F1F7000031
S113047083E00E94C70189EF90E00197F1F700C083
S1130480000082E00E94C70189EF90E00197F1F734
S113049000C0000088E20E94F20189EF90E0019719
S11304A0F1F700C000008CE00E94F20189EF90E0B7
S11304B00197F1F700C0000086E00E94F20189EF85
S11304C090E00197F1F700C000008091D7038860A5
S11304D08093D7036EE770E090E00E94B5018091AD
S11304E0D7038D7F8093D7036EE770E090E00E947E
S11304F0B501089581E00E94F20186E791E0019739
S1130500F1F700C00000089590E4699F800D112464
S113051080680E94F2010895CF93DF93EC018881F3
S1130520882331F021960E94080289918111FBCF22
S1130530DF91CF9108950F931F93CF93DF938C0195
S1130540EB010E947A0280E80E94F201C8010E9435
S11305508C0280EC0E94F201CE010E948C02DF9199
S1130560CF911F910F9108950F931F93CF93DF9312
S1130570D82F63E071E084E191E00E949B020E9425
S1130580A100C0E002ED13E04AC00E94A1002FEFD9
S113059081EE94E0215080409040E1F700C00000DB
S11305A0CF5FCA3039F465E271E084E191E00E94E2
S11305B09B0212C0C43139F466E371E084E191E036
S11305C00E949B0212C0CE3139F467E471E084E1E9
S11305D091E00E949B0223C0C83239F468E571E0BF
S11305E084E191E00E949B021AC0C133C1F469E620
S11305F071E08AE791E00E949B02EFEFFDE329E4BA
S1130600E150F0402040E1F700C000001092D00318
S113061060E173E08BE891E00E949B0205C0F80161
S11306208081823009F4B1CF8091D2038111FEC060
S113063081E00E94BB00FFEF21EE84E0F1502040F6
S11306408040E1F700C000008091D2038111DEC038
S11306506BE971E08CEA91E00E949B029FEFEDE36D
S1130660F9E49150E040F040E1F700C0000063E09D
S113067071E084E191E00E949B020E94A100C0E02D
S113068002ED13E04AC00E94A1002FEF81EE94E036
S1130690215080409040E1F700C00000CF5FCA3095
S11306A039F465E271E084E191E00E949B0212C09A
S11306B0C43139F466E371E084E191E00E949B0265
S11306C012C0CE3139F467E471E084E191E00E9414
S11306D09B0223C0C83239F468E571E084E191E0FB
S11306E00E949B021AC0C133C1F469E671E08AE733
S11306F091E00E949B02EFEFFDE329E4E150F0401A
S11307002040E1F700C000001092D00360E173E0E4
S11307108BE891E00E949B0205C0F8018081823041
S113072009F4B1CF8091D203811160C082E00E94AC
S1130730BB00FFEF29E688E1F15020408040E1F75B
S113074000C000008091D203811140C00E940B01BF
S11307508091D20381112AC08D2F90E00E9425013F
S11307608091D203811112C06DEB71E08EEC91E0A7
S11307700E949B021092CC039FEFE7EAF1E69150AE
S1130780E040F040E1F700C000005FC06FED71E0B1
S113079080EF91E00E949B022FEF87EA91E62150BF
S11307A080409040E1F700C000004FC061E072E07B
S11307B080EF91E00E949B02EFEFF7EA21E6E1501F
S11307C0F0402040E1F700C000003FC062E172E069
S11307D083E292E00E949B028FEF97EAE1E6815068
S11307E09040E040E1F700C000002FC064E372E0F5
S11307F085E492E00E949B02FFEF27EA81E6F15034
S113080020408040E1F700C000001FC062E172E0B8
S113081083E292E00E949B029FEFE7EAF1E69150A7
S1130820E040F040E1F700C000000FC064E372E074
S113083085E492E00E949B022FEF87EA91E6215023
S113084080409040E1F700C000001092D0038091F6
S1130850CC03811106C060E173E08BE891E00E9453
S11308609B02DF91CF911F910F910895CF93C82FD1
S113087090E00E9451012FEF81EE94E021508040DE
S11308809040E1F700C000008091D203811130C094
S11308900E947A0260E080E00E94840286E592E091
S11308A00E948C0261E080E00E94840287E692E06C
S11308B00E948C0261E086E00E9484024AE050E0DB
S11308C069ED73E08C2F90E00E943D080E948C0239
S11308D02FEF87EA91E6215080409040E1F700C075
S11308E0000060E173E08BE891E00E949B0215C078
S11308F06EE672E08FE792E00E949B022FEF87EA98
S113090091E6215080409040E1F700C0000060E192
S113091073E08BE891E00E949B021092CF03CF9189
S11309200895EF92FF921F93CF93DF9300D01F920D
S1130930CDB7DEB763E071E084E191E00E949B02F1
S11309400E94A10010E00F2EF2EDEF2EF3E0FF2E37
S1130950F02D4EC00E94A1002FEF81EE94E02150B3
S113096080409040E1F700C000001F5F1A3039F466
S113097065E271E084E191E00E949B0212C01431AF
S113098039F466E371E084E191E00E949B0212C0B5
S11309901E3139F467E471E084E191E00E949B0226
S11309A027C0183239F468E571E084E191E00E94CF
S11309B09B021EC01233E1F469E671E08AE791E01C
S11309C00E949B02EFEFFDE329E4E150F040204058
S11309D0E1F700C000001092D1031092D0031092EE
S11309E0CF0360E173E08BE891E00E949B02E8C0D2
S11309F0F7018081823009F4ADCF8111C2C081E05A
S1130A000E94BB00FFEF21EE84E0F15020408040C3
S1130A10E1F700C000008091D2038111A2C00E94BE
S1130A20DD009FEFE1EEF4E09150E040F040E1F7AB
S1130A3000C000008091D203811183C08091D00353
S1130A40811104C08091CF038823F9F0E2EDF3E033
S1130A50818190E0982F88272281820F911D209117
S1130A600001309101018217930741F481E08093E2
S1130A70CE031092D1031092CF0392C01092CE03F2
S1130A801092D1031092CF038BC08091CC038111BB
S1130A9087C0E2EDF3E0E380F12CFE2CEE248481A8
S1130AA0E80EF11C0E947A0260E080E00E94840259
S1130AB080E992E00E948C0261E080E00E9484025E
S1130AC081EA92E00E948C0261E08BE00E94840241
S1130AD020E03E2DA1E8B0E80E942E08880F892F5F
S1130AE0881F990B919594E6899F802D11244AE0E3
S1130AF050E0BE016F5F7F4F90E00E943D080E946E
S1130B008C0261E08FE00E9484028DEA92E00E94F0
S1130B108C0295B188E0892785B92FEF8BE792E99C
S1130B20215080409040E1F700C0000060E173E094
S1130B308FEA92E00E949B021092D103109202016C
S1130B402FC061EC72E082ED92E00E949B02EFEF15
S1130B50F7EA21E6E150F0402040E1F700C0000050
S1130B601FC062E172E083E292E00E949B028FEF79
S1130B7097EAE1E681509040E040E1F700C00000D0
S1130B800FC064E372E085E492E00E949B02FFEFF1
S1130B9027EA81E6F15020408040E1F700C00000E0
S1130BA01092CF031092D0031092D10380910201CE
S1130BB0882331F060E173E08BE891E00E949B02AE
S1130BC00F900F900F90DF91CF911F91FF90EF90B6
S1130BD008951F93CF93DF9300D01F92CDB7DEB754
S1130BE00E947A0260E080E00E94840283EE92E038
S1130BF00E948C026BE080E00E9484024AE050E094
S1130C00BE016F5F7F4F81E090E00E943D080E942B
S1130C108C0281E08093CD0311E088C019992CC027
S1130C201F3F81F46BE080E00E9484024AE050E0C0
S1130C30BE016F5F7F4F8FEF90E00E943D080E94DE
S1130C408C0274C01F5F6BE080E00E9484024AE063
S1130C5050E0BE016F5F7F4F812F90E00E943D08FE
S1130C600E948C022FEF83EC99E021508040904049
S1130C70E1F700C000005AC01A9952C01A3021F599
S1130C800E947A0260E080E00E94840283EE92E097
S1130C900E948C026BE080E00E9484024AE050E0F3
S1130CA0BE016F5F7F4F89E090E00E943D080E9483
S1130CB08C022FEF83EC99E0215080409040E1F7C3
S1130CC000C0000019E032C0113081F46BE080E014
S1130CD00E9484024AE050E0BE016F5F7F4F81E0D2
S1130CE090E00E943D080E948C0220C011506BE0ED
S1130CF080E00E9484024AE050E0BE016F5F7F4FB3
S1130D00812F90E00E943D080E948C022FEF83EC1B
S1130D1099E0215080409040E1F700C0000006C0F7
S1130D20189904C01092CD03812F04C08091CD0383
S1130D30811174CF0F900F900F90DF91CF911F917D
S1130D4008950E9481012FEF80E792E021508040B6
S1130D509040E1F700C00000E2EDF3E0818190E013
S1130D60982F88272281820F911D08950E941E02C8
S1130D702FEF80E792E0215080409040E1F700C0DF
S1130D8000000E940B0888E084B987E085B96FEE03
S1130D9072E080E093E00E949B02EFEFF7EA21E625
S1130DA0E150F0402040E1F700C000000E94A1069D
S1130DB0892BF9F481E08093CC038091CC038823C0
S1130DC0C1F0C0E0D1E061E173E082E293E00E940F
S1130DD09B028FEF9DE3E9E481509040E040E1F70E
S1130DE000C0000088810E94B4028091CC0381116C
S1130DF0EACF60E173E08BE891E00E949B02C1E0DE
S1130E00D8E000E011E080910201882309F4E8C0F1
S1130E10189908C08091D103811104C0C093D103F3
S1130E200E94910419995AC08091D003811156C02F
S1130E30C093D00363E373E085E493E00E949B02D4
S1130E40FFEF23ED80E3F15020408040E1F700C044
S1130E5000000E9491048091CE03882341F10E94F6
S1130E60E9058093D803482F50E020910001309188
S1130E70010142175307C1F465E573E086E693E088
S1130E800E949B029FEFE7EAF1E69150E040F040B8
S1130E90E1F700C000001092D00360E173E08BE83A
S1130EA091E00E949B021AC00E94B40217C067E737
S1130EB073E088E893E00E949B021092D0032FEF26
S1130EC087EA91E6215080409040E1F700C000009D
S1130ED060E173E08BE891E00E949B021A9993CF42
S1130EE08091CF0381118FCFC093CF0363E373E06D
S1130EF085E493E00E949B02EFEFF3ED20E3E150E1
S1130F00F0402040E1F700C000000E94910480916D
S1130F10CE03882309F44CC00E94E9058093D803CA
S1130F20482F50E0209100013091010142175307EE
S1130F30D1F569E973E08AEA93E00E949B028FEF9E
S1130F4097EAE1E681509040E040E1F700C00000FC
S1130F5060E173E08BEB93E00E949B02189914C04C
S1130F6060E173E08BE891E00E949B021092CF0352
S1130F701092CE03FFEF23EC89E0F1502040804033
S1130F80E1F700C000003FCF1A99E8CFF801808153
S1130F900E94B4021092CE0360E173E08BE891E00A
S1130FA00E949B0230CF0E9436041092CE032BCFB6
S1130FB067E773E088E893E00E949B021092CF03F6
S1130FC0FFEF27EA81E6F15020408040E1F700C0BE
S1130FD0000060E173E08BE891E00E949B0213CF74
S1130FE08091020181110FCF18990DCFC093020196
S1130FF085B18D2785B960E173E08BE891E00E94AB
S11310009B029FEFE3EDF0E39150E040F040E1F705
S113101000C00000F8CE509A51981092C50080E1AB
S11310208093C400E1ECF0E080818860808380815B
S11310308061808386E08093C2000895E0ECF0E054
S113104080818823ECF78091C6000895E0ECF0E0FD
S1131050908195FFFDCF8093C6000895A29FB001B3
S1131060B39FC001A39F700D811D1124911DB29FD8
S1131070700D811D1124911D08954532510520F4F0
S1131080423010F00C944808FB011082CB01089503
S1131090BB274A3031F4992322F4BDE2909581951F
S11310A09F4F0C945408BB27FB015527AA27880F90
S11310B0991FAA1FA41710F0A41B83955051B9F7C8
S11310C0A05DAA3308F0A95DA193009779F7B11147
S11310D0B1931192CB010C946D08DC01FC01672FD4
S11310E071917723E1F7329704C07C916D937083FB
S11110F06291AE17BF07C8F30895F894FFCFBE
S11310FE010001536B616E6F77616E69653A2D2D38
S113110E2D2D2D002020556D696573632070616C43
S113111E6563202000536B616E6F77616E69653A6B
S113112E202D2D2D2D00536B616E6F77616E6965C9
S113113E3A20202D2D2D00536B616E6F77616E69F1
S113114E653A2020202D2D00536B616E6F77616EF2
S113115E69653A202020202D0020637A79746E6907
S113116E6B75206C696E6969200020204272616B78
S113117E2070616C6361206E61200044727A77691D
S113118E207A616D6B6E69657465002020756D69DA
S113119E6573632070616C656320200020202052EB
S11311AE617A206A65737A637A6520200020706103
S11311BE6C636120772062617A696521200020507A
S11311CE6F6D79736C6E79207A617069732000206B
S11311DE7A617069737520646F2062617A79200078
S11311EE2020426C616420706F64637A61732020E6
S11311FE0074776F727A656E6961206D6F64656CC9
S113120E750020206F6272617A752070616C636163
S113121E20200020426C61642074776F727A656EB0
S113122E696120005370726F62756A20706F6E6F01
S113123E776E6965002020204272616B2070616CAC
S113124E636121202000205573756E6965746F20CB
S113125E70616C656320006F2049443A20002020A1
S113126E7573756E61632070616C6361212000205B
S113127E4E6965207564616C6F207369652020006A
S113128E5A6E616C657A696F6E6F2070616C6563FE
S113129E00205A676F646E6F73633A200025002D29
S11312AE2D44727A7769206F7477617274652D2D6F
S11312BE0070616C636120772073797374656D6956
S11312CE6500204E6965207A6E616C657A696F6E71
S11312DE6F20005779626965727A2049443A005A40
S11312EE616D6B7520737A7966726F77796D2000F4
S11312FE20202020576974616A20773A202020200C
S113130E0041646D696E20706F74727A65626E79D5
S113131E21005069657277737A6520757A796369ED
S113132E65200020202020646C613A2041444D4900
S113133E4E202020005770726F7761647A206F649C
S113134E6369736B006F70657261636A6121284112
S113135E444D494E290020204E6965646F7A776F9B
S113136E6C6F6E6120200020202020646F3A204193
S113137E444D494E2020200050616C6563206E69F7
S113138E65206E616C657A790070616C65632064AA
S113139E6C612041444D494E3F002020437A792010
S11313AE6E6164706973616320200042312D204E9A
S10F13BE4945202042322D2054414B00B0
S9030000FC
