S01A000061726475696E6F5F626F6F746C6F616465722E737265638E
S11300000C943D000C945A000C945A000C945A0021
S11300100C945A000C945A000C945A000C945A00F4
S11300200C945A000C945A000C945A000C945A00E4
S11300300C945A000C945A000C945A000C945A00D4
S11300400C945A000C945A000C945A000C945A00C4
S11300500C945A000C945A000C945A000C945A00B4
S11300600C945A000C945A00ED00F300FF00FF00BA
S1130070FF00FF00040107010B0111241FBECFEF95
S1130080D8E0DEBFCDBF12E0A0E0B1E0EAE9FFE0D6
S113009002C005900D92AC37B107D9F722E0ACE766
S11300A0B2E001C01D92A438B207E1F70E945104E6
S11300B00C94CB070C940000AF92BF92CF92DF92C6
S11300C0EF92FF920F931F93CF93DF93CDB7DEB7D9
S11300D00D851E85CF84A888B988812F90E00E9461
S11300E0A004C80199270E94A0048A8990E00E9474
S11300F0A0048B8990E00E94A0048C8990E00E9467
S1130100A0048D8990E00E94A004EC2CF12CC7017E
S11301100E94A00485010E5F1F4FC12EDD24C6017D
S11301200E94A0041127C8010E94A004C00ED11E81
S1130130CE0CDF1CA114B104A1F0F12CE6E1F0E037
S1130140EC0FFD1FEF0DF11D008110E0C8010E94AE
S1130150A004C00ED11EF3948F2D90E08A159B0548
S113016068F38D2D90E00E94A004C60199270E9497
S1130170A004DF91CF911F910F91FF90EF90DF903A
S1130180CF90BF90AF900895CF92DF92EF92FF92FD
S11301900F931F93CF93DF937C016B0100E010E07A
S11301A0C0E0D0E00CC08FE99FE00197F1F700C0F8
S11301B000000F5F1F4F0C151D0508F043C00E947F
S11301C0A804892B81F30E949804C930D10560F5F5
S11301D0FE01EC5CFF4F0C94B0048F3E81F7F701F5
S11301E0108281832DC0F70120813181A901482B20
S11301F0CA019183808381309F4E11F125C0F7019C
S1130200EC0FFD1F83831CC0F701828319C0F70123
S11302101382848315C0F70123813481A901482BFB
S1130220CA01948383830CC0F701EC0FFD1F808304
S1130230F70123813481CE0108978217930731F0A7
S11302402196BDCF8FEF03C08EEF01C080E0DF9118
S1130250CF911F910F91FF90EF90DF90CF90089571
S1130260CF93DF93CDB7DEB7C954D1090FB6F89455
S1130270DEBF0FBECDBF8DB79EB7895491090FB6AF
S1130280F8949EBF0FBE8DBFADB7BEB7119689E47B
S1130290FE01319601900D928A95E1F70E945C006F
S11302A00FB6F894DEBF0FBECDBF68EE73E0CE018B
S11302B001960E94C400811105C08B81873021F40E
S11302C08A8503C081E001C081E0C75BDF4F0FB6C0
S11302D0F894DEBF0FBECDBFDF91CF910895CF93C9
S11302E0DF93CDB7DEB7C954D1090FB6F894DEBF9A
S11302F00FBECDBF8DB79EB7895491090FB6F89440
S11303009EBF0FBE8DBFADB7BEB7119689E4FE0187
S1130310319601900D928A95E1F70E945C000FB628
S1130320F894DEBF0FBECDBF68EE73E0CE01019638
S11303300E94C400811105C08B81873021F48A8515
S113034003C081E001C081E0C75BDF4F0FB6F894C2
S1130350DEBF0FBECDBFDF91CF910895CF93DF9362
S1130360CDB7DEB7C954D1090FB6F894DEBF0FBEBE
S1130370CDBF8DB79EB7895491090FB6F8949EBF2F
S11303800FBE8DBFADB7BEB7119689E4FE0131969D
S113039001900D928A95E1F70E945C000FB6F894E3
S11303A0DEBF0FBECDBF68EE73E0CE0101960E94A2
S11303B0C400811105C08B81873021F48A8503C074
S11303C081E001C081E0C75BDF4F0FB6F894DEBF68
S11303D00FBECDBFDF91CF910895CF93DF93CDB7FB
S11303E0DEB7C954D1090FB6F894DEBF0FBECDBF36
S11303F08DB79EB7895491090FB6F8949EBF0FBE6E
S11304008DBFADB7BEB7119689E4FE013196019058
S11304100D928A95E1F70E945C000FB6F894DEBF56
S11304200FBECDBF68EE73E0CE0101960E94C400FA
S1130430811105C08B81873021F48A8503C081E056
S113044001C081E0C75BDF4F0FB6F894DEBF0FBE7B
S1130450CDBFDF91CF9108958FEF8093B8001092B4
S1130460B900089584EA8093BC00ECEBF0E080814D
S11304708823ECF708958093BB0084E88093BC0044
S1130480ECEBF0E080818823ECF70895CF93DF93C1
S1130490C82FD62F0E9432028D2F0E943B028C2F30
S11304A00E943B0284E98093BC00DF91CF910895C0
S11304B0CF93C82F80917C02846080937C026EE786
S11304C070E090E00E94460280E18A95F1F700C056
S11304D08C2F8295807F90917C02892B6EE770E04F
S11304E090E00E94460280917C028B7F80937C0284
S11304F06EE770E090E00E94460280E18A95F1F791
S113050000C0CF910895CF93C82F80917C028E7F35
S113051080937C026EE770E090E00E9446028C2F8C
S113052082958F700E9458028C2F0E945802CF919E
S11305300895CF93C82F80917C02816080937C02C0
S11305406EE770E090E00E9446028C2F82958F70D7
S11305500E9458028C2F0E945802CF910895109245
S11305607C020E942C0285EA9EE00197F1F700C00C
S1130570000083E00E94580287EE93E00197F1F7B0
S113058000C0000083E00E94580291E29A95F1F7BE
S1130590000083E00E94580289EF90E00197F1F790
S11305A000C0000082E00E94580289EF90E00197A9
S11305B0F1F700C0000088E20E94830289EF90E016
S11305C00197F1F700C000008CE00E94830289EFDC
S11305D090E00197F1F700C0000086E00E948302DA
S11305E089EF90E00197F1F700C0000080917C0250
S11305F0886080937C026EE770E090E00E9446027F
S113060080917C028D7F80937C026EE770E090E0A5
S11306100E944602089581E00E94830286E791E0E9
S11306200197F1F700C00000089590E4699F800DE0
S1130630112480680E9483020895CF93DF93EC0114
S11306408881882331F021960E9499028991811131
S1130650FBCFDF91CF910895CF9380E091E00E948A
S1130660D30480917D021F928F930E94B6040F9051
S11306700F900E943001C82F813081F028F0823021
S113068041F0833081F014C088E291E00E94D304E9
S113069015C08EE290E00E94CC04EBCF84E391E09D
S11306A00E94D304E6CF88E491E00E94D304E1CF12
S11306B086E591E00E94D304C111DBCF81E00E9462
S11306C06F01C82F8630E9F028F4882341F0813087
S11306D0F1F02FC0873009F1853129F12AC084E671
S11306E091E00E94D30484E791E00E94D3042FEFA9
S11306F087EA91E6215080409040E1F700C0000075
S11307001EC082E891E00E94D30486E0C8C084E35E
S113071091E00E94D30481E0C2C082E991E00E948A
S1130720D30487E0BCC082E991E00E94D30485E150
S1130730B6C086E591E00E94D3048C2FB0C00E941D
S113074030018230E1F786EB91E00E94D3040E94ED
S11307503001C82F813081F028F0823041F083309D
S113076081F014C088E291E00E94D30415C08EE2A7
S113077090E00E94CC04EBCF84E391E00E94D30488
S1130780E6CF88E491E00E94D304E1CF86E591E0CE
S11307900E94D304C111DBCF82E00E946F01C82FF5
S11307A08630C9F028F4882341F08130D1F02BC081
S11307B08730E9F0853109F126C084E691E00E9492
S11307C0D3048EEC91E00E94D3040E94AE01C82FA2
S11307D081112CC01EC082E891E00E94D30486E0FF
S11307E05EC084E391E00E94D30481E058C082E9B2
S11307F091E00E94D30487E052C082E991E00E9414
S1130800D30485E14CC086E591E00E94D3048C2F8B
S113081046C083EE91E00E94D30480917D0290E073
S11308200E94ED01C82F81111DC016C0813031F422
S113083084E391E00E94D30481E031C08A3031F432
S113084083EF91E00E94D3048AE029C086E591E019
S11308500E94D3048C2F23C08EE092E00E94D30424
S113086081E01DC0813031F484E391E00E94D3041F
S113087081E015C08B3031F486E192E00E94D3040C
S11308808BE00DC0883131F487E392E00E94D304F9
S113089088E105C086E591E00E94D3048C2FCF91B6
S11308A008950E94AF020E94850460E080E00E94E7
S11308B015030E940B038EE492E00E941D032FEFA8
S11308C087EA91E6215080409040E1F700C00000A3
S11308D061E080E00E9415038BE592E00E941D0315
S11308E00E940B0360E080E00E94150381E0809386
S11308F07D020E942C032FEF83E294EF215080406D
S11309009040E1F700C00000F4CF519A5098109243
S1130910C50080E18093C400E1ECF0E08081886050
S1130920808380818061808386E08093C200089503
S1130930E0ECF0E080818823ECF78091C600089514
S1130940E0ECF0E0908195FFFDCF8093C600089520
S11309508091C00085FB882780F991E0892708955C
S1130960EE0FFF1F0590F491E02D0994A0E0B0E094
S1130970ECEBF4E00C94A407AE014B5F5F4FFA017B
S113098061917191AF0180918002909181020E94E6
S11309900305E2E00C94C00760918002709181022B
S11309A00E94FA0608950F931F93CF93DF93E0916B
S11309B08002F0918102238121FF1BC08C01D0E0D1
S11309C0C0E0F80181918F016091800270918102F1
S11309D0DB011896ED91FC911997882331F0099564
S11309E0892B79F3DFEFCFEFECCF8AE00995892BE0
S11309F019F08FEF9FEF02C08D2F9C2FDF91CF91C5
S1130A001F910F910895ABE0B0E0E9E0F5E00C949C
S1130A1094076C017B018A01FC0117821682838191
S1130A2081FFCCC1CE0101963C01F6019381F7010F
S1130A3093FD859193FF81917F01882309F4BAC1C5
S1130A40853239F493FD859193FF81917F0185323D
S1130A5029F4B60190E00E94FA06E7CF912C212CEC
S1130A60312CFFE1F315D8F08B3279F038F4803271
S1130A7079F08332A1F4232D20611DC08D3261F001
S1130A80803369F4232D216016C0832D8260382EB3
S1130A90E32DE4603E2E2AC0F32DF8601DC037FC20
S1130AA02DC020ED280F2A3040F08E32B9F436FCE8
S1130AB081C1232D2064322E19C036FE06C08AE07F
S1130AC0989E200D1124922E11C0EAE02E9E200D36
S1130AD01124222EF32DF0623F2E08C08C3621F40F
S1130AE0832D8068382E02C0883641F4F70193FDC7
S1130AF0859193FF81917F018111B3CF982F9F7DC1
S1130B009554933028F40C5F1F4F9FE399830DC0D5
S1130B10833631F0833771F0833509F059C021C031
S1130B20F801808189830E5F1F4F88248394912C60
S1130B30530113C02801F2E04F0E511CF801A080AC
S1130B40B18036FE03C0692D70E002C06FEF7FEF05
S1130B50C5010E94EF064C018201F32DFF773F2E61
S1130B6016C0280122E0420E511CF801A080B18079
S1130B7036FE03C0692D70E002C06FEF7FEFC50140
S1130B800E94E4064C01F32DF0683F2E820133FCF1
S1130B901BC0822D90E088169906B0F4B60180E25D
S1130BA090E00E94FA062A94F4CFF50137FC85916F
S1130BB037FE81915F01B60190E00E94FA06211090
S1130BC02A9421E0821A91088114910471F7E8C0F3
S1130BD0843611F0893641F5F80137FE07C060818B
S1130BE07181828193810C5F1F4F08C06081718184
S1130BF0072E000C880B990B0E5F1F4FF32DFF7609
S1130C003F2E97FF09C090958095709561957F4F11
S1130C108F4F9F4FF0683F2E2AE030E0A3010E94DF
S1130C203607882E861845C0853731F4232D2F7E4C
S1130C30B22E2AE030E025C0932D997FB92E8F364D
S1130C40C1F018F4883579F0B5C0803719F08837C9
S1130C5021F0B0C0E92FE061BE2EB4FE0DC0FB2D23
S1130C60F460BF2E09C034FE0AC0292F2660B22EBC
S1130C7006C028E030E005C020E130E002C020E1F9
S1130C8032E0F801B7FE07C06081718182819381EF
S1130C900C5F1F4F06C06081718180E090E00E5FA1
S1130CA01F4FA3010E943607882E8618FB2DFF775D
S1130CB03F2E36FE0DC0232D2E7FA22E891458F40C
S1130CC034FE0BC032FC09C0832D8E7EA82E05C0D5
S1130CD0B82CA32C03C0B82C01C0B92CA4FE0FC09F
S1130CE0FE01E80DF11D8081803321F49A2D997E57
S1130CF0A92E09C0A2FE06C0B394B39404C08A2DE1
S1130D00867809F0B394A3FC11C0A0FE06C0B21407
S1130D1088F4280C922C9B180EC0B21460F4B6010F
S1130D2080E290E00E94FA06B394F7CFB21418F46C
S1130D302B1802C0982C212CA4FE10C0B60180E30D
S1130D4090E00E94FA06A2FE17C0A1FC03C088E747
S1130D5090E002C088E590E0B6010CC08A2D867848
S1130D6059F0A1FE02C08BE201C080E2A7FC8DE233
S1130D70B60190E00E94FA06891438F4B60180E3C3
S1130D8090E00E94FA069A94F7CF8A94F301E80D52
S1130D90F11D8081B60190E00E94FA068110F5CF22
S1130DA0222009F442CEB60180E290E00E94FA06C5
S1130DB02A94F6CFF6018681978102C08FEF9FEFC8
S1130DC02B96E2E10C94B007FC0105906150704051
S1130DD00110D8F7809590958E0F9F1F0895FC0100
S1130DE06150704001900110D8F7809590958E0F56
S1130DF09F1F08950F931F93CF93DF93FB012381CC
S1130E0021FD03C08FEF9FEF2CC022FF16C0468147
S1130E105781248135814217530744F4A081B1815D
S1130E209D012F5F3F4F318320838C93268137812F
S1130E302F5F3F4F3783268314C08B01EC01FB01E6
S1130E400084F185E02D0995892BE1F6D8011696E9
S1130E508D919C911797019617969C938E93169754
S1130E60CE01DF91CF911F910F910895FA01AA2726
S1130E70283051F1203181F1E8946F936E7F6E5FD9
S1130E807F4F8F4F9F4FAF4FB1E03ED0B4E03CD087
S1130E90670F781F891F9A1FA11D680F791F8A1F6A
S1130EA0911DA11D6A0F711D811D911DA11D20D0D1
S1130EB009F468943F912AE0269F11243019305D8B
S1130EC03193DEF6CF010895462F4770405D41937C
S1130ED0B3E00FD0C9F7F6CF462F4F70405D4A33C9
S1130EE018F0495D31FD4052419302D0A9F7EACF91
S1130EF0B4E0A6959795879577956795BA95C9F7C0
S1130F0000976105710508959B01AC010A2E0694B2
S1130F105795479537952795BA95C9F7620F731F6B
S1130F20841F951FA01D08952F923F924F925F92A8
S1130F306F927F928F929F92AF92BF92CF92DF92E5
S1130F40EF92FF920F931F93CF93DF93CDB7DEB74A
S1130F50CA1BDB0B0FB6F894DEBF0FBECDBF0994DE
S1130F602A88398848885F846E847D848C849B8435
S1130F70AA84B984C884DF80EE80FD800C811B8143
S1130F80AA81B981CE0FD11D0FB6F894DEBF0FBE72
S10D0F90CDBFED010895F894FFCFE2
S1130F9A57616974696E6720666F722076616C693D
S1130FAA642066696E67657220746F20656E726F5D
S1130FBA6C6C206173202300496D6167652074613C
S1130FCA6B656E00436F6D6D756E69636174696FED
S1130FDA6E206572726F7200496D6167696E67206F
S1130FEA6572726F7200556E6B6E6F776E206572E2
S1130FFA726F7200496D61676520636F6E76657200
S113100A7465640052656D6F76652066696E6765FE
S113101A7200496D61676520746F6F206D65737323
S113102A7900436F756C64206E6F742066696E6410
S113103A2066696E6765727072696E74206665618E
S113104A747572657300506C6163652073616D65B4
S113105A2066696E67657220616761696E00437212
S113106A656174696E67206D6F64656C20666F7262
S113107A2023005072696E7473206D61746368650D
S113108A64210046696E6765727072696E747320B2
S113109A646964206E6F74206D61746368005374AC
S11310AA6F7265642100436F756C64206E6F7420DF
S11310BA73746F726520696E2074686174206C6F32
S11310CA636174696F6E004572726F722077726918
S11310DA74696E6720746F20666C61736800486572
S11310EA6C6C6F20776F726C6421004B55525741B8
S11310FA20445A49414C412058440050617373209A
S10F110A696E2049443A0A200025730055
S9030000FC
