:100000000C9434000C9451000C9451000C94510049
:100010000C9451000C9451000C9451000C9451001C
:100020000C9451000C9451000C9451000C9451000C
:100030000C9451000C9451000C9451000C945100FC
:100040000C9451000C9451000C9451000C945100EC
:100050000C9451000C9451000C9451000C945100DC
:100060000C9451000C94510011241FBECFEFD8E026
:10007000DEBFCDBF13E0A0E0B1E0E2EAFDE002C0E8
:1000800005900D92A836B107D9F723E0A8E6B3E0B2
:1000900001C01D92A537B207E1F70E9459050C94E3
:1000A000CF060C9400008FEE90E00E94C70681E01E
:1000B00090E00E94C7068FEF90E00E94C7068FEF86
:1000C00090E00E94C7068FEF90E00E94C7068FEF76
:1000D00090E00E94C70681E090E00E94C706089564
:1000E0001F93CF93DF93182FC9E0D0E00E94BF0683
:1000F0002197E1F70E94BF0680936E031D3149F4FA
:100100000E94BF06CEE6D3E089830E94BF068A83A1
:1001100010C0143071F40E94BF06CEE6D3E089838C
:100120000E94BF068A830E94BF068B830E94BF067F
:100130008C830E94BF060E94BF06DF91CF911F9162
:1001400008950E94530080E090E00E94C70683E07B
:1001500090E00E94C70681E090E00E94C70680E020
:1001600090E00E94C70685E090E00E94C70681E00B
:100170000E9470000895CF93C82F0E94530080E022
:1001800090E00E94C70684E090E00E94C70682E0EB
:1001900090E00E94C70680E090E00E94C70687E0DA
:1001A0008C0F90E00E94C70682E00E947000CF9101
:1001B00008950E94530080E090E00E94C70688E006
:1001C00090E00E94C70684E090E00E94C70681E0AC
:1001D00090E00E94C70680E090E00E94C70681E0A0
:1001E00090E00E94C70680E090E00E94C7068FEF73
:1001F00090E00E94C70681E090E00E94C7068EE072
:1002000090E00E94C70684E00E94700008950E945A
:10021000530080E090E00E94C70683E090E00E94D7
:10022000C70685E090E00E94C70680E090E00E944B
:10023000C70689E090E00E94C70685E00E94700032
:100240000895CF93DF93EC010E94530080E090E08B
:100250000E94C70686E090E00E94C70686E090E014
:100260000E94C70681E090E00E94C706CE01882761
:100270000E94C706CE0199270E94C7062E96CE017E
:1002800088270E94C706CE0199270E94C70686E0EC
:100290000E947000DF91CF910895CF93DF93EC011E
:1002A0000E94530080E090E00E94C70687E090E043
:1002B0000E94C7068CE090E00E94C706CE01882706
:1002C0000E94C706CE0199270E94C70680E090E0F1
:1002D0000E94C70681E090E00E94C7066596CE01A5
:1002E00088270E94C706CE0199270E94C7068CE086
:1002F0000E947000DF91CF9108950E94530080E02A
:1003000090E00E94C70683E090E00E94C7068DE15E
:1003100090E00E94C70680E090E00E94C70681E25C
:1003200090E00E94C7068DE10E94700008958FEF53
:100330008093B8001092B900089584EA8093BC00BD
:10034000ECEBF0E080818823ECF708958093BB000C
:1003500084E88093BC00ECEBF0E080818823ECF72C
:100360000895CF93DF93C82FD62F0E949D018D2F24
:100370000E94A6018C2F0E94A60184E98093BC00F4
:10038000DF91CF910895CF93C82F8091730384603C
:10039000809373036EE770E090E00E94B10180E10A
:1003A0008A95F1F700C08C2F8295807F909173031E
:1003B000892B6EE770E090E00E94B1018091730399
:1003C0008B7F809373036EE770E090E00E94B10131
:1003D00080E18A95F1F700C0CF910895CF93C82F9F
:1003E000809173038E7F809373036EE770E090E0DB
:1003F0000E94B1018C2F82958F700E94C3018C2FB7
:100400000E94C301CF910895CF93C82F80917303A9
:100410008160809373036EE770E090E00E94B10109
:100420008C2F82958F700E94C3018C2F0E94C30174
:10043000CF910895109273030E94970185EA9EE080
:100440000197F1F700C0000083E00E94C30187EE2E
:1004500093E00197F1F700C0000083E00E94C30120
:1004600091E29A95F1F7000083E00E94C30189EFC1
:1004700090E00197F1F700C0000082E00E94C30104
:1004800089EF90E00197F1F700C0000088E20E9438
:10049000EE0189EF90E00197F1F700C000008CE0D9
:1004A0000E94EE0189EF90E00197F1F700C0000093
:1004B00086E00E94EE0189EF90E00197F1F700C01D
:1004C0000000809173038860809373036EE770E08F
:1004D00090E00E94B101809173038D7F809373033C
:1004E0006EE770E090E00E94B101089581E00E9403
:1004F000EE0186E791E00197F1F700C00000089552
:1005000090E4699F800D112480680E94EE01089597
:10051000CF93DF93EC018881882331F021960E94EC
:10052000040289918111FBCFDF91CF9108950F9340
:100530001F93CF93DF938C01EB010E94760280E83A
:100540000E94EE01C8010E94880280EC0E94EE0128
:10055000CE010E948802DF91CF911F910F910895E3
:10056000CF93C82F63E071E084E191E00E9497028D
:100570002FEF83ED90E3215080409040E1F700C0E1
:1005800000000E94A1002FEF89E698E121508040F1
:100590009040E1F700C0000080916E0381119AC085
:1005A00081E00E94BB002FEF81EE94E0215080405B
:1005B0009040E1F700C0000080916E0381117AC085
:1005C00065E271E086E391E00E9497022FEF8DE3F0
:1005D00099E4215080409040E1F700C000000E9463
:1005E000A10080916E03811155C082E00E94BB0082
:1005F00080916E0381113EC00E94070180916E03BD
:10060000811128C08C2F90E00E94210180916E03FF
:10061000811110C067E471E088E591E00E949702C3
:100620002FEF87EA91E6215080409040E1F700C02B
:1006300000005FC069E671E08AE791E00E949702DE
:100640002FEF87EA91E6215080409040E1F700C00B
:1006500000004FC06BE871E08AE791E00E949702CA
:100660002FEF87EA91E6215080409040E1F700C0EB
:1006700000003FC06CE971E08DEA91E00E949702B2
:100680002FEF87EA91E6215080409040E1F700C0CB
:1006900000002FC06EEB71E08FEC91E00E9497029A
:1006A0002FEF87EA91E6215080409040E1F700C0AB
:1006B00000001FC06CE971E08DEA91E00E94970292
:1006C0002FEF87EA91E6215080409040E1F700C08B
:1006D00000000FC06EEB71E08FEC91E00E9497027A
:1006E0002FEF87EA91E6215080409040E1F700C06B
:1006F000000010926C036DEC72E080EE91E00E94BD
:100700009702CF910895CF93C82F90E00E944D019A
:100710002FEF81EE94E0215080409040E1F700C03F
:10072000000080916E0381112AC00E94760260E071
:1007300080E00E94800281EF91E00E94880261E0E7
:1007400080E00E94800282E092E00E94880261E0E4
:1007500086E00E9480028C2F90E00E9488022FEF9A
:1007600087EA91E6215080409040E1F700C0000008
:100770006DEC72E080EE91E00E94970215C069E096
:1007800072E08AE192E00E9497022FEF87EA91E6F9
:10079000215080409040E1F700C000006DEC72E015
:1007A00080EE91E00E94970210926B03CF91089522
:1007B000CF93DF9363E071E084E191E00E949702C0
:1007C0002FEF83ED90E3215080409040E1F700C08F
:1007D00000000E94A1002FEF89E698E1215080409F
:1007E0009040E1F700C0000080916E038111B0C01D
:1007F00081E00E94BB002FEF81EE94E02150804009
:100800009040E1F700C0000080916E0381118CC020
:100810000E94D9002FEF81EE94E02150804090405B
:10082000E1F700C0000080916E03811169C08091E2
:100830006C03811104C080916B038823F9F0EEE60C
:10084000F3E0818190E0982F88272281820F911D0B
:1008500020910001309101018217930741F481E05A
:1008600080936A0310926D0310926B03A2C01092E2
:100870006A0310926D0310926B039BC0EEE6F3E0E7
:10088000C381D0E0DC2FCC278481C80FD11D0E940A
:10089000760260E080E00E9480028BE292E00E949B
:1008A000880261E080E00E9480028CE392E00E9476
:1008B000880261E08BE00E948002CE010E948802E3
:1008C00061E08FE00E94800288E492E00E9488024A
:1008D00095B188E0892785B92FEF8BE792E9215000
:1008E00080409040E1F700C000006DEC72E08AE4C7
:1008F00092E00E94970210926D031092020159C07B
:100900006CE572E08DE692E00E94970210926B0314
:1009100010926C032FEF8BE792E9215080409040BA
:10092000E1F700C0000045C06CE971E08DEA91E09C
:100930000E94970210926B0310926C032FEF8BE7CB
:1009400092E9215080409040E1F700C0000031C0A2
:100950006EEB71E08FEC91E00E94970210926B03B6
:1009600010926C032FEF8DE399E42150804090406A
:10097000E1F700C00000809168038F5F80936803F7
:100980008430B9F46EE772E08FE892E00E9497023B
:1009900010926D032FEF87EA91E62150804090403E
:1009A000E1F700C000006DEC72E080EE91E00E9483
:1009B0009702DF91CF910895CF930E94760260E075
:1009C00080E00E94800280EA92E00E9488026BE050
:1009D00080E00E94800281E090E00E94880281E035
:1009E00080936903C1E04AC0199915C0CF3F49F40B
:1009F0006BE080E00E9480028FEF90E00E9488020E
:100A00003DC0CF5F6BE080E00E9480028C2F90E0C1
:100A10000E94880233C01A992BC0CA30A1F40E94E8
:100A2000760260E080E00E94800280EA92E00E940C
:100A300088026BE080E00E94800289E090E00E94E2
:100A40008802C9E01BC0C13049F46BE080E00E941D
:100A5000800281E090E00E94880210C0C1506BE0EB
:100A600080E00E9480028C2F90E00E94880206C0E5
:100A7000189904C0109269038C2F04C080916903F7
:100A80008111B2CFCF9108950E947D012FEF81EEA9
:100A900094E0215080409040E1F700C00000EEE675
:100AA000F3E0818190E0982F88272281820F911DA9
:100AB00008950F931F93CF93DF930E941A022FEF95
:100AC00080E792E0215080409040E1F700C00000B4
:100AD0000E94AC0688E084B987E085B96CEA72E0D0
:100AE0008DEB92E00E9497022FEF87EA91E621506A
:100AF00080409040E1F700C000000E944405892B2F
:100B000009F56EEC72E08FED92E00E9497022FEFF4
:100B100083ED90E3215080409040E1F700C0000059
:100B200081E080936D0380936C0380916C03882334
:100B300049F0C0E0D1E088810E94B00280916C034E
:100B40008111F9CF6DEC72E080EE91E00E94970286
:100B500011E008E0C0E0D1E080910201882309F4AF
:100B6000E6C0189912C080916D0381110EC01093D8
:100B70006D031092680380916D03882331F00E9409
:100B8000D80380916D038111FACF199944C08091E7
:100B90006C03811140C010936C0360EF72E082E03F
:100BA00093E00E9497020E94D8032FEF87EA91E614
:100BB000215080409040E1F700C0000080916C031C
:100BC000811107C06DEC72E080EE91E00E94970207
:100BD000BCC080916A03882339F00E94DC048093B2
:100BE00074030E94B00217C063E173E084E293E0F3
:100BF0000E94970210926B032FEF87EA91E6215033
:100C000080409040E1F700C000006DEC72E080EEA3
:100C100091E00E9497021A999FCF80916B038111F6
:100C20009BCF10936B0360EF72E082E093E00E9431
:100C300097020E94D8032FEF87EA91E62150804067
:100C40009040E1F700C0000080916B03811107C064
:100C50006DEC72E080EE91E00E94970276C0809188
:100C60006A03882309F44BC00E94DC048093740358
:100C7000482F50E0209100013091010142175307A5
:100C8000C9F565E373E086E493E00E9497022FEFD5
:100C900087EA91E6215080409040E1F700C00000D3
:100CA0006DEC72E087E593E00E949702189914C0FA
:100CB0006DEC72E080EE91E00E94970210926B035F
:100CC00010926A032FEF83EC99E02150804090400E
:100CD000E1F700C0000040CF1A99E8CF88810E9458
:100CE000B00210926A036DEC72E080EE91E00E9417
:100CF000970232CF0E94830310926A032DCF63E1E3
:100D000073E084E293E00E94970210926B032FEF4E
:100D100087EA91E6215080409040E1F700C0000052
:100D20006DEC72E080EE91E00E94970215CF189969
:100D300013CF1093020185B1802785B96DEC72E065
:100D400080EE91E00E94970207CF80E090E0DF9173
:100D5000CF911F910F910895519A50981092C5000C
:100D600080E18093C400E1ECF0E0808188608083C2
:100D700080818061808386E08093C2000895E0ECEA
:100D8000F0E080818823ECF78091C6000895E0ECC4
:100D9000F0E0908195FFFDCF8093C6000895F89410
:020DA000FFCF83
:100DA20001000120637A79746E696B75206C696E3B
:100DB20069692000556D696573632070616C6563B4
:100DC200206E6120002020756D696573632070615B
:100DD2006C65632020002020204A65737A637A655F
:100DE2002072617A2020002070616C63612077207C
:100DF20062617A696521200020506F6D79736C6E93
:100E020079207A617069732000207A617069737544
:100E120020646F2062617A7920002020426C616434
:100E220020706F64637A617320200074776F727A26
:100E3200656E6961206D6F64656C750020206F625C
:100E420072617A752070616C636120200020426CAF
:100E520061642074776F727A656E696120005370E5
:100E6200726F62756A20706F6E6F776E69650020AF
:100E720020204272616B2070616C6361212020002E
:100E82002044727A7769207A616D6B6E6965746548
:100E920000205573756E6965746F2070616C6563AF
:100EA20020006F2049443A200020207573756E613E
:100EB200632070616C6361212000204E696520759A
:100EC20064616C6F207369652020005A6E616C65E5
:100ED2007A696F6E6F2070616C656300205A676F6C
:100EE200646E6F73633A200025002D2D44727A7769
:100EF20069206F7477617274652D2D0070616C6367
:100F02006120772073797374656D696500204E697D
:100F120065207A6E616C657A696F6E6F20002A2A8D
:100F22002A2A2A2A2A2A2A2A2A2A2A2A2A2A005A19
:100F3200627974207769656C652070726F62210036
:100F42005779626965727A2049443A00205A616D84
:100F52006B7520737A7966726F77796D0020202025
:100F620020576974616A20773A202020200041646A
:100F72006D696E20706F74727A65626E79210020DD
:100F82005069657277737A6520757A79636965004D
:100F920020202020646C613A2041444D494E20209B
:100FA2002000205770726F7761647A206F646369E2
:100FB200736B0020202020646F3A2041444D494E3B
:100FC2002020200050616C6563206E6965206E618F
:100FD2006C657A790070616C656320646C61204194
:100FE200444D494E3F002020437A79206E6164705F
:100FF2006973616320200042312D204E4945202033
:0810020042322D2054414B0045
:00000001FF
