:100000000C9434000C9451000C9451000C94510049
:100010000C9451000C9451000C9451000C9451001C
:100020000C9451000C9451000C9451000C9451000C
:100030000C9451000C9451000C9451000C945100FC
:100040000C9451000C9451000C9451000C945100EC
:100050000C9451000C9451000C9451000C945100DC
:100060000C9451000C94510011241FBECFEFD8E026
:10007000DEBFCDBF11E0A0E0B1E0EEE2F3E002C0F0
:1000800005900D92A232B107D9F721E0A2E2B1E0CA
:1000900001C01D92A332B207E1F70E9453010C94F4
:1000A00095010C9400008FEF8093B8001092B90076
:1000B000089584EA8093BC00ECEBF0E08081882313
:1000C000ECF708958093BB0084E88093BC00ECEBD0
:1000D000F0E080818823ECF70895CF93DF93C82F59
:1000E000D62F0E9459008D2F0E9462008C2F0E94F3
:1000F000620084E98093BC00DF91CF910895CF9393
:10010000C82F809122018460809322016EE770E005
:1001100090E00E946D0080E18A95F1F700C08C2F7D
:100120008295807F90912201892B6EE770E090E0AC
:100130000E946D00809122018B7F809322016EE7E7
:1001400070E090E00E946D0080E18A95F1F700C0B8
:10015000CF910895CF93C82F809122018E7F8093F5
:1001600022016EE770E090E00E946D008C2F829576
:100170008F700E947F008C2F0E947F00CF91089586
:10018000CF93C82F809122018160809322016EE776
:1001900070E090E00E946D008C2F82958F700E941D
:1001A0007F008C2F0E947F00CF9108951092220132
:1001B0000E94530085EA9EE00197F1F700C000001D
:1001C00083E00E947F0087EE93E00197F1F700C083
:1001D000000083E00E947F0091E29A95F1F7000011
:1001E00083E00E947F0089EF90E00197F1F700C063
:1001F000000082E00E947F0089EF90E00197F1F714
:1002000000C0000088E20E94AA0089EF90E00197F8
:10021000F1F700C000008CE00E94AA0089EF90E096
:100220000197F1F700C0000086E00E94AA0089EF64
:1002300090E00197F1F700C00000809122018860F2
:10024000809322016EE770E090E00E946D00809143
:1002500022018D7F809322016EE770E090E00E9482
:100260006D00089581E00E94AA0086E791E0019761
:10027000F1F700C00000089590E4699F800D1124FB
:1002800080680E94AA000895CF93DF93EC018881D3
:10029000882331F021960E94C00089918111FBCF03
:1002A000DF91CF9108950E94D6002FEF80E792E072
:1002B000215080409040E1F700C000000E94820180
:1002C00060E080E00E943C010E94320180E091E009
:1002D0000E9444012FEF87EA91E621508040904030
:1002E000E1F700C0000061E080E00E943C0181E194
:1002F00091E00E9444010E94320160E080E00E948F
:100300003C01FFCF519A50981092C50080E1809334
:10031000C400E1ECF0E080818860808380818061AE
:0E032000808386E08093C2000895F894FFCF9A
:10032E0020202020576974616A20773A20202020EF
:10033E0000205A616D6B7520737A7966726F7779CA
:02034E006D0040
:00000001FF
