S01A000061726475696E6F5F626F6F746C6F616465722E737265638E
S11300000C9434000C9451000C9451000C94510045
S11300100C9451000C9451000C9451000C94510018
S11300200C9451000C9451000C9451000C94510008
S11300300C9451000C9451000C9451000C945100F8
S11300400C9451000C9451000C9451000C945100E8
S11300500C9451000C9451000C9451000C945100D8
S11300600C9451000C94510011241FBECFEFD8E022
S1130070DEBFCDBF12E0A0E0B1E0E2E8F8E002C0EC
S113008005900D92AE31B107D9F722E0AEE1B2E0AE
S113009001C01D92AB32B207E1F70E9488030C94B1
S11300A03F040C9400008FEE90E00E94370481E03E
S11300B090E00E9437048FEF90E00E9437048FEFA6
S11300C090E00E9437048FEF90E00E9437048FEF96
S11300D090E00E94370481E090E00E943704089584
S11300E01F93CF93DF93182FC9E0D0E00E942F0411
S11300F02197E1F70E942F04809324021D3149F4D3
S11301000E942F04C4E2D2E089830E942F048A83D0
S113011010C0143071F40E942F04C4E2D2E0898329
S11301200E942F048A830E942F048B830E942F0431
S11301308C830E942F040E942F04DF91CF911F9182
S113014008950E94530080E090E00E94370483E009
S113015090E00E94370481E090E00E94370480E040
S113016090E00E94370485E090E00E94370481E02B
S11301700E9470000895CF93C82F0E94530080E01E
S113018090E00E94370484E090E00E94370482E00B
S113019090E00E94370480E090E00E94370487E0FA
S11301A08C0F90E00E94370482E00E947000CF918F
S11301B008950E94530080E090E00E94370488E094
S11301C090E00E94370484E090E00E94370481E0CC
S11301D090E00E94370480E090E00E94370481E0C0
S11301E090E00E94370480E090E00E9437048FEF93
S11301F090E00E94370481E090E00E9437048EE092
S113020090E00E94370484E00E94700008950E94E8
S1130210530080E090E00E94370483E090E00E9465
S113022037048DE190E00E94370480E090E00E9462
S1130230370481E290E00E9437048DE10E9470004F
S113024008958FEF8093B8001092B900089584EA5E
S11302508093BC00ECEBF0E080818823ECF70895F8
S11302608093BB0084E88093BC00ECEBF0E08081D9
S11302708823ECF70895CF93DF93C82FD62F0E94DD
S113028027018D2F0E9430018C2F0E94300184E9B8
S11302908093BC00DF91CF910895CF93C82F8091B4
S11302A029028460809329026EE770E090E00E9446
S11302B03B0180E18A95F1F700C08C2F8295807F05
S11302C090912902892B6EE770E090E00E943B0137
S11302D0809129028B7F809329026EE770E090E081
S11302E00E943B0180E18A95F1F700C0CF91089507
S11302F0CF93C82F809129028E7F809329026EE7C5
S113030070E090E00E943B018C2F82958F700E94D8
S11303104D018C2F0E944D01CF910895CF93C82F8A
S1130320809129028160809329026EE770E090E059
S11303300E943B018C2F82958F700E944D018C2F5F
S11303400E944D01CF910895109229020E9421012B
S113035085EA9EE00197F1F700C0000083E00E9467
S11303604D0187EE93E00197F1F700C0000083E0B0
S11303700E944D0191E29A95F1F7000083E00E94FA
S11303804D0189EF90E00197F1F700C0000082E091
S11303900E944D0189EF90E00197F1F700C0000041
S11303A088E20E94780189EF90E00197F1F700C09C
S11303B000008CE00E94780189EF90E00197F1F74A
S11303C000C0000086E00E94780189EF90E0019768
S11303D0F1F700C00000809129028860809329020F
S11303E06EE770E090E00E943B01809129028D7FCE
S11303F0809329026EE770E090E00E943B0108952B
S113040081E00E94780186E791E00197F1F700C04E
S11304100000089590E4699F800D112480680E9473
S113042078010895CF93DF93EC018881882331F01C
S113043021960E948E0189918111FBCFDF91CF918A
S11304400895CF93DF930E94A1008091240281112B
S1130450ACC081E00E94BB0080912402811189C05C
S11304600E94D90080912402811167C080912202E8
S11304708823E9F0E4E2F2E0818190E0982F882774
S11304802281820F911D2091000130910101821778
S1130490930731F481E08093200210922302C4C0B8
S11304A0109222021092200210922302BDC0E4E2B4
S11304B0F2E0C381D0E0DC2FCC278481C80FD11DAA
S11304C00E94000260E080E00E940A0283E091E062
S11304D00E94120261E080E00E940A0284E191E03D
S11304E00E94120261E08BE00E940A02CE010E9487
S11304F0120261E08FE00E940A0280E291E00E9411
S1130500120295B188E0892785B92FEF83E294EF31
S1130510215080409040E1F700C000000E9400029A
S113052060E080E00E940A0282E291E00E941202EE
S1130530109223021092020177C00E94000260E030
S113054080E00E940A0284E391E00E94120261E0CA
S113055080E00E940A0285E491E00E9412022FEFDB
S11305608BE792E9215080409040E1F700C0000001
S11305705BC00E94000260E080E00E940A0286E5FF
S113058091E00E94120261E080E00E940A0287E684
S113059091E00E9412022FEF8BE792E921508040F4
S11305A09040E1F700C000003FC00E94000260E0FC
S11305B080E00E940A0288E791E00E94120261E052
S11305C080E00E940A0289E891E00E9412022FEF63
S11305D08DE399E4215080409040E1F700C0000091
S11305E080911E028F5F80931E028430E9F40E9482
S11305F0000260E080E00E940A028AE991E00E9421
S1130600120261E080E00E940A028BEA91E00E94FB
S113061012022FEF87EA91E6215080409040E1F7E3
S113062000C0000010922302DF91CF910895CF9370
S11306300E94000260E080E00E940A028CEB91E0DC
S11306400E9412026BE080E00E940A0281E090E0C6
S11306500E941202C1E04AC0199915C0CF3F49F463
S11306606BE080E00E940A028FEF90E00E94120289
S11306703DC0CF5F6BE080E00E940A028C2F90E0C7
S11306800E94120233C01A992BC0CA30A1F40E94EE
S1130690000260E080E00E940A028CEB91E00E947C
S11306A012026BE080E00E940A0289E090E00E945E
S11306B01202C9E01BC0C13049F46BE080E00E9423
S11306C00A0281E090E00E94120210C0C1506BE067
S11306D080E00E940A028C2F90E00E94120206C061
S11306E0189904C010921F028C2F04C080911F021D
S11306F08111B2CFCF9108950E940701E4E2F2E0A4
S1130700818190E0982F88272281820F911D08957E
S11307100E94A4012FEF80E792E021508040904096
S1130720E1F700C000000E941C0488E084B987E05F
S113073085B90E94000260E080E00E940A0288EC11
S113074091E00E94120261E080E00E940A0289EDB9
S113075091E00E9412022FEF87EA91E62150804037
S11307609040E1F700C000000E947C03892BC9F48B
S11307700E94000260E080E00E940A028AEE91E09A
S11307800E94120261E080E00E940A028BEF91E075
S11307900E94120281E08093220280912202811140
S11307A0FCCF0E94000260E080E00E940A028CE01C
S11307B092E00E941202C1E0D8E0809102018823F5
S11307C049F1189912C08091230281110EC0C0937F
S11307D0230210921E0280912302882331F00E948A
S11307E02102809123028111FACF199908C08091C6
S11307F02202811104C00E94170380932A021A99CD
S1130800DCCF809121028111D8CF0E9417038093FD
S11308102A02D3CF1899D1CFC093020185B18D2775
S113082085B90E94000260E080E00E940A028CE028
S113083092E00E941202C1CF519A50981092C500C2
S113084080E18093C400E1ECF0E0808188608083E3
S113085080818061808386E08093C2000895E0EC0B
S1130860F0E080818823ECF78091C6000895E0ECE5
S1130870F0E0908195FFFDCF8093C6000895F89431
S1050880FFCFA4
S11308820100015A6E616C657A696F6E6F20706146
S11308926C656300205A676F646E6F73633A20005D
S11308A225002D2D44727A7769206F7477617274F2
S11308B2652D2D00204E6965207A6E616C657A691A
S11308C26F6E6F200070616C63612077207379739F
S11308D274656D69650020426C61642074776F727F
S11308E27A656E6961200020206F6272617A7520D8
S11308F270616C63612020002020204272616B20B1
S113090270616C6361212020005370726F62756A9A
S113091220706F6E6F776E6965005A627974207702
S113092269656C652070726F6221002A2A2A2A2A5C
S11309322A2A2A2A2A2A2A2A2A2A2A005779626948
S113094265727A2049443A00202020205769746154
S11309526A20773A2020202000205A616D6B75208E
S1130962737A7966726F77796D0020506965727750
S1130972737A6520757A796369650041646D696E7D
S113098220706F74727A65626E793A002044727ACA
S11109927769207A616D6B6E6965746500008B
S9030000FC
