S01A000061726475696E6F5F626F6F746C6F616465722E737265638E
S11300000C9434000C9451000C9451000C94510045
S11300100C9451000C9451000C9451000C94510018
S11300200C9451000C9451000C9451000C94510008
S11300300C9451000C9451000C9451000C945100F8
S11300400C9451000C9451000C9451000C945100E8
S11300500C9451000C9451000C9451000C945100D8
S11300600C9451000C94510011241FBECFEFD8E022
S1130070DEBFCDBF11E0A0E0B1E0EEE2F3E002C0EC
S113008005900D92AA3CB107D9F721E0AAECB1E0A2
S113009001C01D92AB3CB207E1F70E9453010C94DE
S11300A095010C9400008FEF8093B8001092B90072
S11300B0089584EA8093BC00ECEBF0E0808188230F
S11300C0ECF708958093BB0084E88093BC00ECEBCC
S11300D0F0E080818823ECF70895CF93DF93C82F55
S11300E0D62F0E9459008D2F0E9462008C2F0E94EF
S11300F0620084E98093BC00DF91CF910895CF938F
S1130100C82F8091CA0184608093CA016EE770E0B1
S113011090E00E946D0080E18A95F1F700C08C2F79
S11301208295807F9091CA01892B6EE770E090E000
S11301300E946D008091CA018B7F8093CA016EE793
S113014070E090E00E946D0080E18A95F1F700C0B4
S1130150CF910895CF93C82F8091CA018E7F809349
S1130160CA016EE770E090E00E946D008C2F8295CA
S11301708F700E947F008C2F0E947F00CF91089582
S1130180CF93C82F8091CA0181608093CA016EE722
S113019070E090E00E946D008C2F82958F700E9419
S11301A07F008C2F0E947F00CF9108951092CA0186
S11301B00E94530085EA9EE00197F1F700C0000019
S11301C083E00E947F0087EE93E00197F1F700C07F
S11301D0000083E00E947F0091E29A95F1F700000D
S11301E083E00E947F0089EF90E00197F1F700C05F
S11301F0000082E00E947F0089EF90E00197F1F710
S113020000C0000088E20E94AA0089EF90E00197F4
S1130210F1F700C000008CE00E94AA0089EF90E092
S11302200197F1F700C0000086E00E94AA0089EF60
S113023090E00197F1F700C000008091CA01886046
S11302408093CA016EE770E090E00E946D00809197
S1130250CA018D7F8093CA016EE770E090E00E942E
S11302606D00089581E00E94AA0086E791E001975D
S1130270F1F700C00000089590E4699F800D1124F7
S113028080680E94AA000895CF93DF93EC018881CF
S1130290882331F021960E94C00089918111FBCFFF
S11302A0DF91CF9108950E94D6002FEF80E792E06E
S11302B0215080409040E1F700C000000E9482017C
S11302C060E080E00E943C010E94320180E091E005
S11302D00E94440161E080E00E943C0181E191E0E0
S11302E00E9444012FEF87EA91E62150804090401C
S11302F0E1F700C000000E94320160E080E00E944B
S11303003C01FFCF519A50981092C50080E1809330
S1130310C400E1ECF0E080818860808380818061AA
S1110320808386E08093C2000895F894FFCF96
S113032E20202020576974616A20773A20202020EB
S113033E00205A616D6B7520737A7966726F7779C6
S113034E6D005A6E616C657A696F6E6F2070616CA8
S113035E656300205A676F646E6F73633A200025DD
S113036E00204E6965207A6E616C657A696F6E6FD6
S113037E200070616C636120772073797374656DEE
S113038E69650020426C61642074776F727A656EC1
S113039E6961200020206F6272617A752070616C31
S11303AE63612020002020204272616B2070616CFA
S11303BE6361212020005370726F62756A20706F22
S11303CE6E6F776E6965005A627974207769656C11
S11303DE652070726F6221002A2A2A2A2A2A2A2A62
S10D03EE2A2A2A2A2A2A2A2A0000B1
S9030000FC
