S02B00005A616D656B20737A7966726F7779207A20637A79746E696B69656D206C696E696920706170696C6152
S11300000C9434000C9451000C9451000C94510045
S11300100C9451000C9451000C9451000C94510018
S11300200C9451000C9451000C9451000C94F10A5E
S11300300C9451000C9451000C9451000C945100F8
S11300400C9451000C9451000C9451000C945100E8
S11300500C9451000C9451000C9451000C945100D8
S11300600C9451000C94510011241FBECFEFD8E022
S1130070DEBFCDBF14E0A0E0B1E0E0EBFAE102C0E6
S113008005900D92AC30B107D9F724E0ACE0B4E0B0
S113009001C01D92AD31B207E1F70E94DF080C9454
S11300A0560D0C9400008FEE90E00E941A0B81E034
S11300B090E00E941A0B8FEF90E00E941A0B8FEFD2
S11300C090E00E941A0B8FEF90E00E941A0B8FEFC2
S11300D090E00E941A0B81E090E00E941A0B0895B0
S11300E0CF93DF93D82FC9E00E94120BC150E1F7E0
S11300F00E94120B80931304DD3149F40E94120B09
S1130100C3E1D4E089830E94120B8A8310C0D430E7
S113011071F40E94120BC3E1D4E089830E94120B94
S11301208A830E94120B8B830E94120B8C830E9481
S1130130120B0E94120BDF91CF9108950E9453007D
S113014080E090E00E941A0B83E090E00E941A0B7A
S113015081E090E00E941A0B80E090E00E941A0B6C
S113016085E090E00E941A0B81E00E9470000895DF
S1130170CF93C82F0E94530080E090E00E941A0B96
S113018084E090E00E941A0B82E090E00E941A0B37
S11301908C2F90E00E941A0B80E090E00E941A0BD2
S11301A087E08C0F90E00E941A0B82E00E9470009E
S11301B0CF9108950E94530080E090E00E941A0BB2
S11301C088E090E00E941A0B84E090E00E941A0BF1
S11301D081E090E00E941A0B80E090E00E941A0BEC
S11301E081E090E00E941A0B80E090E00E941A0BDC
S11301F08FEF90E00E941A0B81E090E00E941A0BAE
S11302008EE090E00E941A0B84E00E947000089532
S11302100E94530080E090E00E941A0B83E090E07B
S11302200E941A0B85E090E00E941A0B80E090E097
S11302300E941A0B89E090E00E941A0B85E00E944C
S113024070000895CF93DF93EC010E94530080E087
S113025090E00E941A0B86E090E00E941A0B86E060
S113026090E00E941A0B81E090E00E941A0BCE01EC
S113027088270E941A0BCE0199270E941A0B2E96EA
S1130280CE0188270E941A0BCE0199270E941A0BCF
S113029086E00E947000DF91CF910895CF93DF93A1
S11302A0EC010E94530080E090E00E941A0B87E06A
S11302B090E00E941A0B8CE090E00E941A0BCE0191
S11302C088270E941A0BCE0199270E941A0B80E0FE
S11302D090E00E941A0B81E090E00E941A0B659650
S11302E0CE0188270E941A0BCE0199270E941A0B6F
S11302F08CE00E947000DF91CF9108950E9453001A
S113030080E090E00E941A0B83E090E00E941A0BB8
S11303108DE190E00E941A0B80E090E00E941A0B9D
S113032081E290E00E941A0B8DE10E947000089512
S11303308FEF8093B8001092B900089584EA8093F7
S1130340BC00ECEBF0E080818823ECF70895809307
S1130350BB0084E88093BC00ECEBF0E08081882350
S1130360ECF70895CF93DF93C82FD62F0E949E01F8
S11303708D2F0E94A7018C2F0E94A70184E98093EE
S1130380BC00DF91CF910895CF93C82F80911804BA
S11303908460809318046EE770E090E00E94B201DC
S11303A030E13A95F1F700C02091180430E1C39F81
S11303B0C00111246EE770E0822B0E94B20180918B
S11303C018048B7F809318046EE770E090E00E941D
S11303D0B20180E18A95F1F700C0CF910895CF93DF
S11303E0C82F809118048E7F809318046EE770E004
S11303F090E00E94B2018C2F82958F700E94C401FC
S11304008C2F0E94C401CF910895CF93C82F80915F
S113041018048160809318046EE770E090E00E94F5
S1130420B2018C2F82958F700E94C4018C2F0E9480
S1130430C401CF910895109218040E94980185EA8E
S11304409EE00197F1F700C0000083E00E94C40120
S113045087EE93E00197F1F700C0000083E00E946B
S1130460C40191E29A95F1F7000083E00E94C4016F
S113047089EF90E00197F1F700C0000082E00E944C
S1130480C40189EF90E00197F1F700C0000088E211
S11304900E94EF0189EF90E00197F1F700C000009E
S11304A08CE00E94EF0189EF90E00197F1F700C022
S11304B0000086E00E94EF0189EF90E00197F1F7D8
S11304C000C00000809118048860809318046EE7CF
S11304D070E090E00E94B201809118048D7F8093B7
S11304E018046EE770E090E00E94B201089581E084
S11304F00E94EF0186E791E00197F1F700C0000048
S1130500089590E4699F800D112480680E94EF0192
S11305100895CF93DF93EC018881882331F02196ED
S11305200E94050289918111FBCFDF91CF9108953B
S11305300F931F93CF93DF938C01EB010E947702FB
S113054080E80E94EF01C8010E94890280EC0E94A9
S1130550EF01CE010E948902DF91CF911F910F918B
S11305600895CF93C42F90E4699F800D112480686F
S11305700E94EF018C2F0E940502CF9108950F93E2
S11305801F93CF93DF938B01880F880F880F805CB4
S11305900E94EF01E801085F1F4F89910E94050244
S11305A0C017D107D1F7DF91CF911F910F91089513
S11305B00F931F93CF93DF93D82F63E471E084E507
S11305C091E00E94980245E050E060E070E086E02F
S11305D090E00E94B10241E050E060E070E087E00A
S11305E090E00E94B1020E949E00C0E003E114E08A
S11305F092C00E949E002FEF81EE94E02150804033
S11306009040E1F700C00000CF5FCA30B9F465E65E
S113061071E084E591E00E94980245E050E060E0DA
S113062070E086E090E00E94B10241E050E060E0BA
S113063070E087E090E00E94B10232C0C431B9F4A6
S113064066E771E084E591E00E94980245E050E09D
S113065060E070E086E090E00E94B10241E050E08A
S113066060E070E087E090E00E94B10232C0CE31D9
S1130670B9F467E871E084E591E00E94980245E0EE
S113068050E060E070E086E090E00E94B10241E05A
S113069050E060E070E087E090E00E94B1023BC06F
S11306A0C832B9F468E971E084E591E00E949802E7
S11306B045E050E060E070E086E090E00E94B10226
S11306C041E050E060E070E087E090E00E94B10219
S11306D022C0C13301F569EA71E08AEB91E00E941E
S11306E09802EFEFFDE329E4E150F0402040E1F708
S11306F000C000001092110460E573E08BEC91E0FF
S11307000E94980242E050E060E070E08CE090E0EB
S11307100E94B10205C0F8018081823009F469CFDA
S1130720809113048111C6C181E00E94B800FFEFDB
S113073021EE84E0F15020408040E1F700C0000049
S113074080911304811196C16BED71E08CEE91E000
S11307500E94980245E050E061E070E086E090E09D
S11307600E94B10241E050E061E070E087E090E077
S11307700E94B1029FEFEDE3F9E49150E040F040B4
S1130780E1F700C0000063E471E084E591E00E94B9
S1130790980245E050E060E070E086E090E00E945E
S11307A0B10241E050E060E070E087E090E00E9438
S11307B0B1020E949E00C0E003E114E0A2C00E94C6
S11307C09E002FEF81EE94E0215080409040E1F7AD
S11307D000C00000CF5FCA30B9F465E671E084E57B
S11307E091E00E94980245E050E060E070E086E00D
S11307F090E00E94B10241E050E060E070E087E0E8
S113080090E00E94B10232C0C431B9F466E771E0ED
S113081084E591E00E94980245E050E060E070E0D9
S113082086E090E00E94B10241E050E060E070E0B8
S113083087E090E00E94B10232C0CE31B9F467E89B
S113084071E084E591E00E94980245E050E060E0A8
S113085070E086E090E00E94B10241E050E060E088
S113086070E087E090E00E94B1024BC0C832B9F456
S113087068E971E084E591E00E94980245E050E067
S113088060E070E086E090E00E94B10241E050E058
S113089060E070E087E090E00E94B10232C0C133B2
S11308A081F569EA71E08AEB91E00E94980245E0E3
S11308B050E060E070E086E090E00E94B10241E028
S11308C050E060E070E087E090E00E94B102EFEF5A
S11308D0FDE329E4E150F0402040E1F700C00000CE
S11308E01092110460E573E08BEC91E00E94980291
S11308F042E050E060E070E08CE090E00E94B102E1
S113090005C0F8018081823009F459CF8091130425
S1130910811198C082E00E94B800FFEF29E688E1C7
S1130920F15020408040E1F700C0000080911304A2
S1130930811168C00E94080180911304811142C092
S11309408D2F90E00E9422018091130481111AC01E
S11309506DEF71E08EE092E00E94980245E050E075
S113096060E070E085E090E00E94B10210920D0416
S11309709FEFE7EAF1E69150E040F040E1F700C074
S11309800000AFC06FE172E080E392E00E94980241
S113099043E050E060E070E083E090E00E94B10248
S11309A040E050E060E070E084E090E00E94B1023A
S11309B02FEF87EA91E6215080409040E1F700C094
S11309C000008FC061E472E080E392E00E9498022C
S11309D043E050E060E070E083E090E00E94B10208
S11309E040E050E060E070E084E090E00E94B102FA
S11309F0EFEFF7EA21E6E150F0402040E1F700C0D4
S1130A0000006FC062E572E083E692E00E94980203
S1130A1043E050E060E070E082E090E00E94B102C8
S1130A2040E050E060E070E083E090E00E94B102BA
S1130A308FEF97EAE1E681509040E040E1F700C093
S1130A4000004FC064E772E085E892E00E949802DB
S1130A5044E050E061E070E083E090E00E94B10285
S1130A60FFEF27EA81E6F15020408040E1F700C023
S1130A70000037C062E572E083E692E00E949802CB
S1130A8043E050E060E070E082E090E00E94B10258
S1130A9040E050E060E070E083E090E00E94B1024A
S1130AA09FEFE7EAF1E69150E040F040E1F700C043
S1130AB0000017C064E772E085E892E00E949802A3
S1130AC044E050E061E070E083E090E00E94B10215
S1130AD02FEF87EA91E6215080409040E1F700C073
S1130AE000001092110480910D0481110EC060E584
S1130AF073E08BEC91E00E94980242E050E060E0E9
S1130B0070E08CE090E00E94B102DF91CF911F91E0
S1130B100F910895CF93C82F90E00E944E012FEFBC
S1130B2081EE94E0215080409040E1F700C0000045
S1130B3080911304811140C00E94770260E080E03C
S1130B400E94810286E992E00E94890242E050E01C
S1130B5060E070E086E090E00E94B10261E080E035
S1130B600E94810287EA92E00E94890261E086E0A5
S1130B700E9481024AE050E06AE174E08C2F90E028
S1130B800E94160D0E9489022FEF87EA91E62150F8
S1130B9080409040E1F700C0000060E573E08BEC1A
S1130BA091E00E94980242E050E060E070E08CE046
S1130BB090E00E94B1023DC06EEA72E08FEB92E0D9
S1130BC00E94980243E050E060E070E088E090E02A
S1130BD00E94B10242E050E060E070E08DE090E0FD
S1130BE00E94B10240E050E061E070E085E090E0F6
S1130BF00E94B10241E050E061E070E086E090E0E4
S1130C000E94B1022FEF87EA91E621508040904084
S1130C10E1F700C0000060E573E08BEC91E00E9416
S1130C20980242E050E060E070E08CE090E00E94C6
S1130C30B10210921004CF910895EF92FF921F9386
S1130C40CF93DF9300D01F92CDB7DEB763E471E09A
S1130C5084E591E00E94980245E050E060E070E095
S1130C6086E090E00E94B10241E050E060E070E074
S1130C7087E090E00E94B1020E949E0010E00F2ED7
S1130C80F3E1EF2EF4E0FF2EF02DA6C00E949E00AB
S1130C902FEF81EE94E0215080409040E1F700C0B6
S1130CA000001F5F1A30B9F465E671E084E591E055
S1130CB00E94980245E050E060E070E086E090E039
S1130CC00E94B10241E050E060E070E087E090E013
S1130CD00E94B10232C01431B9F466E771E084E5D0
S1130CE091E00E94980245E050E060E070E086E008
S1130CF090E00E94B10241E050E060E070E087E0E3
S1130D0090E00E94B10232C01E31B9F467E871E08C
S1130D1084E591E00E94980245E050E060E070E0D4
S1130D2086E090E00E94B10241E050E060E070E0B3
S1130D3087E090E00E94B1024FC01832B9F468E92C
S1130D4071E084E591E00E94980245E050E060E0A3
S1130D5070E086E090E00E94B10241E050E060E083
S1130D6070E087E090E00E94B10236C01233A1F532
S1130D7069EA71E08AEB91E00E94980245E050E054
S1130D8060E070E086E090E00E94B10241E050E053
S1130D9060E070E087E090E00E94B102EFEFFDE3D5
S1130DA029E4E150F0402040E1F700C00000109237
S1130DB01204109211041092100460E573E08BEC9D
S1130DC091E00E94980242E050E060E070E08CE024
S1130DD090E00E94B1021DC1F7018081823009F4C4
S1130DE055CF8111E7C081E00E94B800FFEF21EEEA
S1130DF084E0F15020408040E1F700C00000809181
S1130E0013048111B7C00E94DA009FEFE1EEF4E011
S1130E109150E040F040E1F700C0000080911304DD
S1130E20811198C080911104811104C08091100433
S1130E308823F9F0E3E1F4E0818190E0982F88279A
S1130E402281820F911D20910001309101018217AE
S1130E50930741F481E080930F04109212041092DE
S1130E601004BFC010920F041092120410921004C8
S1130E70B8C080910D048111B4C0E3E1F4E0638152
S1130E8070E0762F662784817B01E80EF11C0E94B6
S1130E90770260E080E00E94810280ED92E00E948F
S1130EA0890261E080E00E94810281EE92E00E946A
S1130EB0890245E050E061E070E087E090E00E9444
S1130EC0B10241E050E061E070E088E090E00E940F
S1130ED0B10261E08BE00E948102B70180E090E002
S1130EE00E94DA0B20E030E04FE753E40E94390B14
S1130EF020E030E048EC52E40E94A90C0E94220B4E
S1130F000E94AB0B862F4AE050E0BE016F5F7F4F1B
S1130F1090E00E94160D0E94890261E08FE00E9419
S1130F2081028DEE92E00E9489022B9A2FEF8BE7CB
S1130F3092E9215080409040E1F700C0000060E554
S1130F4073E08FEE92E00E949802109212041092C5
S1130F50020147C061E073E082E193E00E949802DD
S1130F60EFEFF7EA21E6E150F0402040E1F700C05E
S1130F70000037C062E572E083E692E00E949802C6
S1130F8043E050E060E070E082E090E00E94B10253
S1130F9040E050E060E070E084E090E00E94B10244
S1130FA08FEF97EAE1E681509040E040E1F700C01E
S1130FB0000017C064E772E085E892E00E9498029E
S1130FC044E050E061E070E083E090E00E94B10210
S1130FD0FFEF27EA81E6F15020408040E1F700C0AE
S1130FE000001092100410921104109212048091C7
S1130FF00201882371F060E573E08BEC91E00E94BC
S1131000980242E050E060E070E08CE090E00E94E2
S1131010B1020F900F900F90DF91CF911F91FF902D
S1131020EF9008951F93CF93DF9300D01F92CDB715
S1131030DEB70E94770260E080E00E94810283E2D2
S113104093E00E9489026BE080E00E9481024AE002
S113105050E0BE016F5F7F4F81E090E00E94160D6B
S11310600E94890281E080930E0411E088C01999DE
S11310702CC01F3F81F46BE080E00E9481024AE0B3
S113108050E0BE016F5F7F4F8FEF90E00E94160D1E
S11310900E94890274C01F5F6BE080E00E9481029D
S11310A04AE050E0BE016F5F7F4F812F90E00E94C5
S11310B0160D0E9489022FEF83EC99E021508040A5
S11310C09040E1F700C000005AC01A9952C01A308B
S11310D021F50E94770260E080E00E94810283E2B1
S11310E093E00E9489026BE080E00E9481024AE062
S11310F050E0BE016F5F7F4F89E090E00E94160DC3
S11311000E9489022FEF83EC99E0215080409040A7
S1131110E1F700C0000019E032C0113081F46BE047
S113112080E00E9481024AE050E0BE016F5F7F4F81
S113113081E090E00E94160D0E94890220C01150A7
S11311406BE080E00E9481024AE050E0BE016F5FE4
S11311507F4F812F90E00E94160D0E9489022FEF8D
S113116083EC99E0215080409040E1F700C00000FA
S113117006C0189904C010920E04812F04C08091F7
S11311800E04811174CF0F900F900F90DF91CF91C7
S11311901F9108950E947E012FEF80E792E0215075
S11311A080409040E1F700C00000E3E1F4E0818179
S11311B090E0982F88272281820F911D08950F9324
S11311C01F93CF93DF930E941B022FEF80E792E0DF
S11311D0215080409040E1F700C000000E94040BC1
S11311E088E084B987E085B9E1E8F0E080818B602C
S11311F08083EFE6F0E08081826080831092850036
S11312001092840081EE94E090938900809388008A
S113121078946BE371E080E090E00E94BF0263E3A6
S113122071E081E090E00E94BF026BE271E082E035
S113123090E00E94BF0263E271E083E090E00E94CC
S1131240BF026BE171E084E090E00E94BF0263E1C1
S113125071E085E090E00E94BF026BE071E086E0FF
S113126090E00E94BF0263E071E087E090E00E949A
S1131270BF026FE273E080E493E00E949802EFEF14
S1131280F7EA21E6E150F0402040E1F700C0000019
S11312900E94CA08892B39F581E080930D0480915E
S11312A00D04882301F1C0E0D1E061E573E082E63A
S11312B093E00E94980246E050E060E070E08AE02B
S11312C090E00E94B1028FEF9DE3E9E481509040E9
S11312D0E040E1F700C0000088810E94D8028091BC
S11312E00D048111E2CF60E573E08BEC91E00E9484
S11312F0980242E050E060E070E08CE090E00E94F0
S1131300B102C1E000E011E080910C04882309F4EB
S11313103FC180910201882309F41AC1189908C0B9
S113132080911204811104C0C09312040E941D060E
S113133019995BC080911104811157C0C0931104A5
S113134063E773E085E893E00E94980247E050E089
S113135060E070E087E090E00E94B102FFEF23EDCF
S113136080E3F15020408040E1F700C000000E947B
S11313701D0680910F04882389F00E94120880932F
S11313801904482F50E020910001309101014217C7
S1131390530709F400C10E94D80227C067EB73E029
S11313A088EC93E00E94980246E050E060E070E030
S11313B08EE090E00E94B102109211042FEF87EAB0
S11313C091E6215080409040E1F700C0000060E5C4
S11313D073E08BEC91E00E94980242E050E060E000
S11313E070E08CE090E00E94B1021A99D1C0809123
S11313F010048111CDC0C093100463E773E085E845
S113140093E00E94980247E050E060E070E087E0DB
S113141090E00E94B102EFEFF3ED20E3E150F040E1
S11314202040E1F700C000000E941D0680910F04D7
S1131430882309F465C00E94120880931904482F78
S113144050E020910001309101014217530709F047
S113145052C069ED73E08AEE93E00E94980241E085
S113146050E060E070E08DE090E00E94B1028FEF08
S113147097EAE1E681509040E040E1F700C00000C7
S113148060E573E08BEF93E00E94980218991CC00A
S113149060E573E08BEC91E00E94980242E050E03A
S11314A060E070E08CE090E00E94B10210921004C1
S11314B010920F04FFEF23EC89E0F15020408040AC
S11314C0E1F700C0000064C01999E0CFF801808101
S11314D00E94D80210920F0460E573E08BEC91E057
S11314E00E94980242E050E060E070E08CE090E0FE
S11314F00E94B1024DC00E948A0510920F0448C098
S113150067EB73E088EC93E00E94980246E050E0B9
S113151060E070E08EE090E00E94B102109210044E
S1131520FFEF27EA81E6F15020408040E1F700C058
S1131530000060E573E08BEC91E00E94980242E0C9
S113154050E060E070E08CE090E00E94B10220C0C6
S11315508091020181111CC018991AC0C093020124
S11315602B9860E573E08BEC91E00E94980242E0D6
S113157050E060E070E08CE090E00E94B1029FEFE8
S1131580E3EDF0E39150E040F040E1F700C00000EB
S113159010920C04B9CE65E973E086EA93E00E94E8
S11315A098029FEFE7EAF1E69150E040F040E1F75E
S11315B000C000001092110460E573E08BEC91E030
S11315C00E94980242E050E060E070E08CE090E01D
S11315D00E94B10280E090E0DF91CF911F910F91C2
S11315E008951F920F920FB60F9211248F931092A9
S11315F085001092840081E080930C048F910F90F9
S11316000FBE0F901F901895509A51981092C500D4
S113161080E18093C40088E18093C10086E08093D8
S1131620C2000895E0ECF0E080818823ECF780911B
S1131630C6000895E0ECF0E0908195FFFDCF809323
S1131640C60008950E948A0C90F09F3748F49111C7
S113165016F40C94A30C60E070E080E89FE3089516
S113166026F01B16611D711D811D0C941D0C0C941C
S1131670380C0E944D0B0C94570C0E94500C58F0DF
S11316800E94490C40F029F45F3F29F00C94170C98
S113169051110C94A30C0C94460C0E94680C68F332
S11316A09923B1F3552391F3951B550BBB27AA2717
S11316B062177307840738F09F5F5F4F220F331F51
S11316C0441FAA1FA9F335D00E2E3AF0E0E832D019
S11316D091505040E695001CCAF72BD0FE2F29D01C
S11316E0660F771F881FBB1F261737074807AB07EE
S11316F0B0E809F0BB0B802DBF01FF2793585F4F63
S11317003AF09E3F510578F00C94170C0C94A30CFE
S11317105F3FE4F3983ED4F3869577956795B79544
S1131720F7959F5FC9F7880F911D9695879597F94F
S11317300895E1E0660F771F881FBB1F62177307C8
S11317408407BA0720F0621B730B840BBA0BEE1FDD
S113175088F7E09508950E94700C88F09F5798F0E0
S1131760B92F9927B751B0F0E1F0660F771F881FA2
S1131770991F1AF0BA95C9F714C0B13091F00E94BC
S1131780A20CB1E008950C94A20C672F782F88273F
S1131790B85F39F0B93FCCF3869577956795B395E3
S11317A0D9F73EF490958095709561957F4F8F4F52
S11317B09F4F0895E89409C097FB3EF49095809557
S11317C0709561957F4F8F4F9F4F9923A9F0F92F03
S11317D096E9BB279395F695879577956795B79581
S11317E0F111F8CFFAF4BB0F11F460FF1BC06F5F67
S11317F07F4F8F4F9F4F16C0882311F096E911C079
S1131800772321F09EE8872F762F05C0662371F099
S113181096E8862F70E060E02AF09A95660F771FAD
S1131820881FDAF7880F9695879597F9089597F9A1
S11318309F6780E870E060E00895882371F477235F
S113184021F09850872B762F07C0662311F499272F
S11318500DC09051862B70E060E02AF09A95660FD7
S1131860771F881FDAF7880F9695879597F908955B
S11318709F3F31F0915020F4879577956795B79500
S1131880880F911D9695879597F908959FEF80ECA1
S1131890089500240A9416161706180609060895D2
S11318A000240A9412161306140605060895092E38
S11318B00394000C11F4882352F0BB0F40F4BF2BA7
S11318C011F460FF04C06F5F7F4F8F4F9F4F0895E7
S11318D057FD9058440F551F59F05F3F71F04795DD
S11318E0880F97FB991F61F09F3F79F087950895C2
S11318F0121613061406551FF2CF4695F1DF08C0E1
S1131900161617061806991FF1CF869571056105FD
S1131910089408950E94700CA0F0BEE7B91788F4EB
S1131920BB279F3860F41616B11D672F782F8827C0
S1131930985FF7CF869577956795B11D93959639FE
S1131940C8F30895E894BB2766277727CB0197F956
S113195008950E94BC0C0C94570C0E94490C38F05A
S11319600E94500C20F0952311F00C94170C0C9449
S1131970460C11240C94A30C0E94680C70F3959FE0
S1131980C1F3950F50E0551F629FF001729FBB2772
S1131990F00DB11D639FAA27F00DB11DAA1F649F0E
S11319A06627B00DA11D661F829F2227B00DA11DC1
S11319B0621F739FB00DA11D621F839FA00D611D47
S11319C0221F749F3327A00D611D231F849F600D68
S11319D0211D822F762F6A2F11249F5750409AF091
S11319E0F1F088234AF0EE0FFF1FBB1F661F771F1D
S11319F0881F91505040A9F79E3F510580F00C94E8
S1131A00170C0C94A30C5F3FE4F3983ED4F3869533
S1131A1077956795B795F795E7959F5FC1F7FE2B87
S1131A20880F911D9695879597F90895453251052C
S1131A3020F4423010F00C94210DFB011082CB01F4
S1131A400895BB274A3031F4992322F4BDE29095DE
S1131A5081959F4F0C942D0DBB27FB015527AA2779
S1131A60880F991FAA1FA41710F0A41B8395505127
S1131A70B9F7A05DAA3308F0A95DA193009779F79F
S1131A80B111B1931192CB010C94460DDC01FC0110
S1131A90672F71917723E1F7329704C07C916D939E
S1131AA070836291AE17BF07C8F30895F894FFCF0F
S1131AB001000104081F0204081F0004001F02049F
S1131AC0081F0002040E100E011E0002040E111164
S1131AD0110E000C04060404040E0000000E111F75
S1131AE0100E0202040E1010100E0000000E010F62
S1131AF0110F02536B616E6F77616E69653A2D2D1C
S1131B002D2D2D002020556D696573632070616C47
S1131B106563202000536B616E6F77616E69653A6F
S1131B20202D2D2D2D00536B616E6F77616E6965CD
S1131B303A20202D2D2D00536B616E6F77616E69F5
S1131B40653A2020202D2D00536B616E6F77616EF6
S1131B5069653A202020202D0020637A79746E690B
S1131B606B75206C696E6969200020204272616B7C
S1131B702070616C6361206E61200044727A776921
S1131B80207A616D6B6E69657465002020756D69DE
S1131B906573632070616C656320200020202052EF
S1131BA0617A206A65737A637A6520200020706107
S1131BB06C636120772062617A696521200020507E
S1131BC06F6D79736C6E79207A617069732000206F
S1131BD07A617069737520646F2062617A7920007C
S1131BE02020426C616420706F64637A61732020EA
S1131BF00074776F727A656E6961206D6F64656CCD
S1131C00750020206F6272617A752070616C636167
S1131C1020200020426C61642074776F727A656EB4
S1131C20696120005370726F62756A20706F6E6F05
S1131C30776E6965002020204272616B2070616CB0
S1131C40636121202000205573756E6965746F20CF
S1131C5070616C656320006F2049443A20002020A5
S1131C607573756E61632070616C6361212000205F
S1131C704E6965207564616C6F207369652020006E
S1131C805A6E616C657A696F6E6F2070616C656302
S1131C9000205A676F646E6F73633A200025002D2D
S1131CA02D44727A7769206F7477617274652D2D73
S1131CB00070616C636120772073797374656D695A
S1131CC06500204E6965207A6E616C657A696F6E75
S1131CD06F20005779626965727A2049443A005A44
S1131CE0616D6B7520737A7966726F77796D2000F8
S1131CF020202020576974616A20773A2020202010
S1131D000041646D696E20706F74727A65626E79D9
S1131D1021005069657277737A6520757A796369F1
S1131D2065200020202020646C613A2041444D4904
S1131D304E202020005770726F7761647A206F64A0
S1131D406369736B006F70657261636A6121284116
S1131D50444D494E290020204E6965646F7A776F9F
S1131D606C6F6E6120200020202020646F3A204197
S1131D70444D494E2020200050616C6563206E69FB
S1131D8065206E616C657A790070616C65632064AE
S1131D906C612041444D494E3F002020437A792014
S1131DA06E6164706973616320200042312D204E9E
S10F1DB04945202042322D2054414B00B4
S9030000FC
