S02B00005A616D656B20737A7966726F7779207A20637A79746E696B69656D206C696E696920706170696C6152
S11300000C9434000C9451000C9451000C94510045
S11300100C9451000C9451000C9451000C94510018
S11300200C9451000C9451000C9451000C94510008
S11300300C9451000C9451000C9451000C945100F8
S11300400C9451000C9451000C9451000C945100E8
S11300500C9451000C9451000C9451000C945100D8
S11300600C9451000C94510011241FBECFEFD8E022
S1130070DEBFCDBF13E0A0E0B1E0EAEEF4E102C0E0
S113008005900D92A83DB107D9F723E0A8EDB3E0A0
S113009001C01D92A83EB207E1F70E94BB060C9472
S11300A0730A0C9400008FEE90E00E94370881E000
S11300B090E00E9437088FEF90E00E9437088FEF9E
S11300C090E00E9437088FEF90E00E9437088FEF8E
S11300D090E00E94370881E090E00E94370808957C
S11300E01F93CF93DF93182FC9E0D0E00E942F080D
S11300F02197E1F70E942F088093DE031D3149F414
S11301000E942F08CEEDD3E089830E942F088A83B2
S113011010C0143071F40E942F08CEEDD3E089830F
S11301200E942F088A830E942F088B830E942F0825
S11301308C830E942F080E942F08DF91CF911F917A
S113014008950E94530080E090E00E94370883E005
S113015090E00E94370881E090E00E94370880E038
S113016090E00E94370885E090E00E94370881E023
S11301700E9470000895CF93C82F0E94530080E01E
S113018090E00E94370884E090E00E94370882E003
S113019090E00E9437088C2F90E00E94370880E09E
S11301A090E00E94370887E08C0F90E00E943708A7
S11301B082E00E947000CF9108950E94530080E075
S11301C090E00E94370888E090E00E94370884E0BD
S11301D090E00E94370881E090E00E94370880E0B8
S11301E090E00E94370881E090E00E94370880E0A8
S11301F090E00E9437088FEF90E00E94370881E07A
S113020090E00E9437088EE090E00E94370884E076
S11302100E94700008950E94530080E090E00E94C4
S1130220370883E090E00E94370885E090E00E9460
S1130230370880E090E00E94370889E090E00E944F
S1130240370885E00E9470000895CF93DF93EC0196
S11302500E94530080E090E00E94370886E090E01E
S11302600E94370886E090E00E94370881E090E021
S11302700E943708CE0188270E943708CE019927AB
S11302800E9437082E96CE0188270E943708CE0197
S113029099270E94370886E00E947000DF91CF9171
S11302A00895CF93DF93EC010E94530080E090E027
S11302B00E94370887E090E00E9437088CE090E0C5
S11302C00E943708CE0188270E943708CE0199275B
S11302D00E94370880E090E00E94370881E090E0B7
S11302E00E9437086596CE0188270E943708CE0100
S11302F099270E9437088CE00E947000DF91CF910B
S113030008950E94530080E090E00E94370883E043
S113031090E00E9437088DE190E00E94370880E069
S113032090E00E94370881E290E00E9437088DE156
S11303300E94700008958FEF8093B8001092B90066
S1130340089584EA8093BC00ECEBF0E0808188237C
S1130350ECF708958093BB0084E88093BC00ECEB39
S1130360F0E080818823ECF70895CF93DF93C82FC2
S1130370D62F0E94A1018D2F0E94AA018C2F0E94CA
S1130380AA0184E98093BC00DF91CF910895CF93B3
S1130390C82F8091E30384608093E3036EE770E0E9
S11303A090E00E94B50130E13A95F1F700C0209148
S11303B0E30330E1C39FC00111246EE770E0822B98
S11303C00E94B5018091E3038B7F8093E3036EE782
S11303D070E090E00E94B50180E18A95F1F700C0D9
S11303E0CF910895CF93C82F8091E3038E7F80939C
S11303F0E3036EE770E090E00E94B5018C2F8295D4
S11304008F700E94C7018C2F0E94C701CF9108955D
S1130410CF93C82F8091E30381608093E3036EE759
S113042070E090E00E94B5018C2F82958F700E943D
S1130430C7018C2F0E94C701CF9108951092E30346
S11304400E949B0185EA9EE00197F1F700C000003D
S113045083E00E94C70187EE93E00197F1F700C0A3
S1130460000083E00E94C70191E29A95F1F7000031
S113047083E00E94C70189EF90E00197F1F700C083
S1130480000082E00E94C70189EF90E00197F1F734
S113049000C0000088E20E94F20189EF90E0019719
S11304A0F1F700C000008CE00E94F20189EF90E0B7
S11304B00197F1F700C0000086E00E94F20189EF85
S11304C090E00197F1F700C000008091E303886099
S11304D08093E3036EE770E090E00E94B5018091A1
S11304E0E3038D7F8093E3036EE770E090E00E9466
S11304F0B501089581E00E94F20186E791E0019739
S1130500F1F700C00000089590E4699F800D112464
S113051080680E94F2010895CF93DF93EC018881F3
S1130520882331F021960E94080289918111FBCF22
S1130530DF91CF9108950F931F93CF93DF938C0195
S1130540EB010E947A0280E80E94F201C8010E9435
S11305508C0280EC0E94F201CE010E948C02DF9199
S1130560CF911F910F9108950F931F93CF93DF9312
S1130570D82F63E071E084E191E00E949B020E9425
S1130580A100C0E00EED13E04AC00E94A1002FEFCD
S113059081EE94E0215080409040E1F700C00000DB
S11305A0CF5FCA3039F465E271E084E191E00E94E2
S11305B09B0212C0C43139F466E371E084E191E036
S11305C00E949B0212C0CE3139F467E471E084E1E9
S11305D091E00E949B0223C0C83239F468E571E0BF
S11305E084E191E00E949B021AC0C133C1F469E620
S11305F071E08AE791E00E949B02EFEFFDE329E4BA
S1130600E150F0402040E1F700C000001092DC030C
S113061060E173E08BE891E00E949B0205C0F80161
S11306208081823009F4B1CF8091DE038111FEC054
S113063081E00E94BB00FFEF21EE84E0F1502040F6
S11306408040E1F700C000008091DE038111DEC02C
S11306506BE971E08CEA91E00E949B029FEFEDE36D
S1130660F9E49150E040F040E1F700C0000063E09D
S113067071E084E191E00E949B020E94A100C0E02D
S11306800EED13E04AC00E94A1002FEF81EE94E02A
S1130690215080409040E1F700C00000CF5FCA3095
S11306A039F465E271E084E191E00E949B0212C09A
S11306B0C43139F466E371E084E191E00E949B0265
S11306C012C0CE3139F467E471E084E191E00E9414
S11306D09B0223C0C83239F468E571E084E191E0FB
S11306E00E949B021AC0C133C1F469E671E08AE733
S11306F091E00E949B02EFEFFDE329E4E150F0401A
S11307002040E1F700C000001092DC0360E173E0D8
S11307108BE891E00E949B0205C0F8018081823041
S113072009F4B1CF8091DE03811160C082E00E94A0
S1130730BB00FFEF29E688E1F15020408040E1F75B
S113074000C000008091DE03811140C00E940B01B3
S11307508091DE0381112AC08D2F90E00E94250133
S11307608091DE03811112C06DEB71E08EEC91E09B
S11307700E949B021092D8039FEFE7EAF1E69150A2
S1130780E040F040E1F700C000005FC06FED71E0B1
S113079080EF91E00E949B022FEF87EA91E62150BF
S11307A080409040E1F700C000004FC061E072E07B
S11307B080EF91E00E949B02EFEFF7EA21E6E1501F
S11307C0F0402040E1F700C000003FC062E172E069
S11307D083E292E00E949B028FEF97EAE1E6815068
S11307E09040E040E1F700C000002FC064E372E0F5
S11307F085E492E00E949B02FFEF27EA81E6F15034
S113080020408040E1F700C000001FC062E172E0B8
S113081083E292E00E949B029FEFE7EAF1E69150A7
S1130820E040F040E1F700C000000FC064E372E074
S113083085E492E00E949B022FEF87EA91E6215023
S113084080409040E1F700C000001092DC038091EA
S1130850D803811106C060E173E08BE891E00E9447
S11308609B02DF91CF911F910F910895CF93C82FD1
S113087090E00E9451012FEF81EE94E021508040DE
S11308809040E1F700C000008091DE03811130C088
S11308900E947A0260E080E00E94840286E592E091
S11308A00E948C0261E080E00E94840287E692E06C
S11308B00E948C0261E086E00E9484024AE050E0DB
S11308C065EE73E08C2F90E00E94330A0E948C0244
S11308D02FEF87EA91E6215080409040E1F700C075
S11308E0000060E173E08BE891E00E949B0215C078
S11308F06EE672E08FE792E00E949B022FEF87EA98
S113090091E6215080409040E1F700C0000060E192
S113091073E08BE891E00E949B021092DB03CF917D
S11309200895EF92FF921F93CF93DF9300D01F920D
S1130930CDB7DEB763E071E084E191E00E949B02F1
S11309400E94A10010E00F2EFEEDEF2EF3E0FF2E2B
S1130950F02D4EC00E94A1002FEF81EE94E02150B3
S113096080409040E1F700C000001F5F1A3039F466
S113097065E271E084E191E00E949B0212C01431AF
S113098039F466E371E084E191E00E949B0212C0B5
S11309901E3139F467E471E084E191E00E949B0226
S11309A027C0183239F468E571E084E191E00E94CF
S11309B09B021EC01233E1F469E671E08AE791E01C
S11309C00E949B02EFEFFDE329E4E150F040204058
S11309D0E1F700C000001092DD031092DC031092D6
S11309E0DB0360E173E08BE891E00E949B02EDC0C1
S11309F0F7018081823009F4ADCF8111C7C081E055
S1130A000E94BB00FFEF21EE84E0F15020408040C3
S1130A10E1F700C000008091DE038111A7C00E94AD
S1130A20DD009FEFE1EEF4E09150E040F040E1F7AB
S1130A3000C000008091DE03811188C08091DC0336
S1130A40811104C08091DB038823F9F0EEEDF3E01B
S1130A50818190E0982F88272281820F911D209117
S1130A600001309101018217930741F481E08093E2
S1130A70DA031092DD031092DB0397C01092DA03BD
S1130A801092DD031092DB0390C08091D803811192
S1130A908CC0EEEDF3E0638170E0762F66278481ED
S1130AA07B01E80EF11C0E947A0260E080E00E9463
S1130AB0840280E992E00E948C0261E080E00E945E
S1130AC0840281EA92E00E948C0261E08BE00E9441
S1130AD08402B70180E090E00E94F70820E030E053
S1130AE04FE753E40E94560820E030E048EC52E41B
S1130AF00E94C6090E943F080E94C808862F4AE047
S1130B0050E0BE016F5F7F4F90E00E94330A0E9465
S1130B108C0261E08FE00E9484028DEA92E00E94E0
S1130B208C022B9A2FEF8BE792E921508040904062
S1130B30E1F700C0000060E173E08FEA92E00E94F8
S1130B409B021092DD03109202012FC061EC72E04F
S1130B5082ED92E00E949B02EFEFF7EA21E6E1507A
S1130B60F0402040E1F700C000001FC062E172E0E5
S1130B7083E292E00E949B028FEF97EAE1E68150C4
S1130B809040E040E1F700C000000FC064E372E071
S1130B9085E492E00E949B02FFEF27EA81E6F15090
S1130BA020408040E1F700C000001092DB03109267
S1130BB0DC031092DD0380910201882331F060E1AF
S1130BC073E08BE891E00E949B020F900F900F90CE
S1130BD0DF91CF911F91FF90EF9008951F93CF93D2
S1130BE0DF9300D01F92CDB7DEB70E947A0260E097
S1130BF080E00E94840283EE92E00E948C026BE00B
S1130C0080E00E9484024AE050E0BE016F5F7F4FA3
S1130C1081E090E00E94330A0E948C0281E080937C
S1130C20D90311E088C019992CC01F3F81F46BE0EF
S1130C3080E00E9484024AE050E0BE016F5F7F4F73
S1130C408FEF90E00E94330A0E948C0274C01F5FF1
S1130C506BE080E00E9484024AE050E0BE016F5FD6
S1130C607F4F812F90E00E94330A0E948C022FEF65
S1130C7083EC99E0215080409040E1F700C00000EF
S1130C805AC01A9952C01A3021F50E947A0260E0C3
S1130C9080E00E94840283EE92E00E948C026BE06A
S1130CA080E00E9484024AE050E0BE016F5F7F4F03
S1130CB089E090E00E94330A0E948C022FEF83ECBB
S1130CC099E0215080409040E1F700C0000019E015
S1130CD032C0113081F46BE080E00E9484024AE06B
S1130CE050E0BE016F5F7F4F81E090E00E94330AC5
S1130CF00E948C0220C011506BE080E00E948402AC
S1130D004AE050E0BE016F5F7F4F812F90E00E9468
S1130D10330A0E948C022FEF83EC99E0215080402B
S1130D209040E1F700C0000006C0189904C010927A
S1130D30D903812F04C08091D903811174CF0F90FE
S1130D400F900F90DF91CF911F9108950E94810120
S1130D502FEF80E792E0215080409040E1F700C0FF
S1130D600000EEEDF3E0818190E0982F8827228146
S1130D70820F911D08950E941E022FEF80E792E0DA
S1130D80215080409040E1F700C000000E941C0800
S1130D9088E084B987E085B96FEE72E080E093E083
S1130DA00E949B02EFEFF7EA21E6E150F040204079
S1130DB0E1F700C000000E94A606892BF9F481E047
S1130DC08093D8038091D8038823C1F0C0E0D1E098
S1130DD061E173E082E293E00E949B028FEF9DE366
S1130DE0E9E481509040E040E1F700C000008881D0
S1130DF00E94B4028091D8038111EACF60E173E0CC
S1130E0083E393E00E949B02FFEF27EA81E6F1501F
S1130E1020408040E1F700C0000060E173E08BE80F
S1130E2091E00E949B02C1E000E011E08091020188
S1130E30882309F4E8C0189908C08091DD03811162
S1130E4004C0C093DD030E94910419995AC0809193
S1130E50DC03811156C0C093DC036FE373E081E5CA
S1130E6093E00E949B029FEFE3EDF0E39150E0409A
S1130E70F040E1F700C000000E9491048091DA0381
S1130E80882341F10E94EE058093E403482F50E04B
S1130E90209100013091010142175307C1F461E62A
S1130EA073E082E793E00E949B022FEF87EA91E6CA
S1130EB0215080409040E1F700C000001092DC0314
S1130EC060E173E08BE891E00E949B021AC00E94EB
S1130ED0B40217C063E873E084E993E00E949B02C4
S1130EE01092DC03EFEFF7EA21E6E150F0402040F6
S1130EF0E1F700C0000060E173E08BE891E00E943C
S1130F009B021A9993CF8091DB0381118FCFC093F9
S1130F10DB036FE373E081E593E00E949B028FEFB4
S1130F2093EDE0E381509040E040E1F700C0000021
S1130F300E9491048091DA03882309F44CC00E9432
S1130F40EE058093E403482F50E020910001309196
S1130F50010142175307D1F565EA73E086EB93E08C
S1130F600E949B02FFEF27EA81E6F1502040804077
S1130F70E1F700C0000060E173E087EC93E00E94B9
S1130F809B02189914C060E173E08BE891E00E9421
S1130F909B021092DB031092DA039FEFE3ECF9E07B
S1130FA09150E040F040E1F700C000003FCF1999B4
S1130FB0E8CFF80180810E94B4021092DA0360E164
S1130FC073E08BE891E00E949B0230CF0E943604CC
S1130FD01092DA032BCF63E873E084E993E00E9474
S1130FE09B021092DB03FFEF27EA81E6F1502040D9
S1130FF08040E1F700C0000060E173E08BE891E01D
S11310000E949B0213CF8091020181110FCF189986
S11310100DCFC09302012B9860E173E08BE891E05F
S11310200E949B029FEFE3EDF0E39150E040F0401B
S1131030E1F700C00000FACE509A51981092C50012
S113104080E18093C400E1ECF0E0808188608083DB
S113105080818061808386E08093C2000895E0EC03
S1131060F0E080818823ECF78091C6000895E0ECDD
S1131070F0E0908195FFFDCF8093C60008950E9413
S1131080A70990F09F3748F4911116F40C94C00905
S113109060E070E080E89FE3089526F01B16611D70
S11310A0711D811D0C943A090C9455090E946A081B
S11310B00C9474090E946D0958F00E94660940F06E
S11310C029F45F3F29F00C94340951110C94C009A0
S11310D00C9463090E94850968F39923B1F355239D
S11310E091F3951B550BBB27AA2762177307840737
S11310F038F09F5F5F4F220F331F441FAA1FA9F3CD
S113110035D00E2E3AF0E0E832D091505040E695BA
S1131110001CCAF72BD0FE2F29D0660F771F881F1B
S1131120BB1F261737074807AB07B0E809F0BB0B0E
S1131130802DBF01FF2793585F4F3AF09E3F510522
S113114078F00C9434090C94C0095F3FE4F3983EA2
S1131150D4F3869577956795B795F7959F5FC9F70B
S1131160880F911D9695879597F90895E1E0660F8C
S1131170771F881FBB1F621773078407BA0720F005
S1131180621B730B840BBA0BEE1F88F7E09508956E
S11311900E948D0988F09F5798F0B92F9927B7516D
S11311A0B0F0E1F0660F771F881F991F1AF0BA9507
S11311B0C9F714C0B13091F00E94BF09B1E008959D
S11311C00C94BF09672F782F8827B85F39F0B93F8F
S11311D0CCF3869577956795B395D9F73EF49095BA
S11311E08095709561957F4F8F4F9F4F0895E89438
S11311F009C097FB3EF490958095709561957F4F5B
S11312008F4F9F4F9923A9F0F92F96E9BB27939508
S1131210F695879577956795B795F111F8CFFAF418
S1131220BB0F11F460FF1BC06F5F7F4F8F4F9F4F49
S113123016C0882311F096E911C0772321F09EE8A7
S1131240872F762F05C0662371F096E8862F70E00D
S113125060E02AF09A95660F771F881FDAF7880FE7
S11312609695879597F9089597F99F6780E870E0B8
S113127060E00895882371F4772321F09850872B38
S1131280762F07C0662311F499270DC09051862B41
S113129070E060E02AF09A95660F771F881FDAF7EE
S11312A0880F9695879597F908959F3F31F091504F
S11312B020F4879577956795B795880F911D969536
S11312C0879597F908959FEF80EC089500240A9478
S11312D01616170618060906089500240A9412160D
S11312E01306140605060895092E0394000C11F440
S11312F0882352F0BB0F40F4BF2B11F460FF04C0ED
S11313006F5F7F4F8F4F9F4F089557FD9058440F45
S1131310551F59F05F3F71F04795880F97FB991F50
S113132061F09F3F79F0879508951216130614060D
S1131330551FF2CF4695F1DF08C01616170618069A
S1131340991FF1CF869571056105089408950E944F
S11313508D09A0F0BEE7B91788F4BB279F3860F465
S11313601616B11D672F782F8827985FF7CF8695BB
S113137077956795B11D93959639C8F30895E894C8
S1131380BB2766277727CB0197F908950E94D909CF
S11313900C9474090E94660938F00E946D0920F0CB
S11313A0952311F00C9434090C94630911240C94C2
S11313B0C0090E94850970F3959FC1F3950F50E011
S11313C0551F629FF001729FBB27F00DB11D639FF3
S11313D0AA27F00DB11DAA1F649F6627B00DA11D99
S11313E0661F829F2227B00DA11D621F739FB00D3F
S11313F0A11D621F839FA00D611D221F749F3327AF
S1131400A00D611D231F849F600D211D822F762F47
S11314106A2F11249F5750409AF0F1F088234AF024
S1131420EE0FFF1FBB1F661F771F881F9150504090
S1131430A9F79E3F510580F00C9434090C94C0091F
S11314405F3FE4F3983ED4F3869577956795B79517
S1131450F795E7959F5FC1F7FE2B880F911D969531
S1131460879597F908954532510520F4423010F0DC
S11314700C943E0AFB011082CB010895BB274A302D
S113148031F4992322F4BDE2909581959F4F0C94F9
S11314904A0ABB27FB015527AA27880F991FAA1FB1
S11314A0A41710F0A41B83955051B9F7A05DAA337B
S11314B008F0A95DA193009779F7B111B193119246
S11314C0CB010C94630ADC01FC01672F7191772333
S11314D0E1F7329704C07C916D9370836291AE17EB
S10D14E0BF07C8F30895F894FFCF86
S11314EA010001536B616E6F77616E69653A2D2D48
S11314FA2D2D2D002020556D696573632070616C54
S113150A6563202000536B616E6F77616E69653A7B
S113151A202D2D2D2D00536B616E6F77616E6965D9
S113152A3A20202D2D2D00536B616E6F77616E6901
S113153A653A2020202D2D00536B616E6F77616E02
S113154A69653A202020202D0020637A79746E6917
S113155A6B75206C696E6969200020204272616B88
S113156A2070616C6361206E61200044727A77692D
S113157A207A616D6B6E69657465002020756D69EA
S113158A6573632070616C656320200020202052FB
S113159A617A206A65737A637A6520200020706113
S11315AA6C636120772062617A696521200020508A
S11315BA6F6D79736C6E79207A617069732000207B
S11315CA7A617069737520646F2062617A79200088
S11315DA2020426C616420706F64637A61732020F6
S11315EA0074776F727A656E6961206D6F64656CD9
S11315FA750020206F6272617A752070616C636174
S113160A20200020426C61642074776F727A656EC0
S113161A696120005370726F62756A20706F6E6F11
S113162A776E6965002020204272616B2070616CBC
S113163A636121202000205573756E6965746F20DB
S113164A70616C656320006F2049443A20002020B1
S113165A7573756E61632070616C6361212000206B
S113166A4E6965207564616C6F207369652020007A
S113167A5A6E616C657A696F6E6F2070616C65630E
S113168A00205A676F646E6F73633A200025002D39
S113169A2D44727A7769206F7477617274652D2D7F
S11316AA0070616C636120772073797374656D6966
S11316BA6500204E6965207A6E616C657A696F6E81
S11316CA6F20005779626965727A2049443A005A50
S11316DA616D6B7520737A7966726F77796D200004
S11316EA20202020576974616A20773A202020201C
S11316FA0041646D696E20706F74727A65626E79E6
S113170A21005069657277737A6520757A796369FD
S113171A65200057535A5953544B4F204F4B0020BE
S113172A202020646C613A2041444D494E202020F7
S113173A005770726F7761647A206F646369736BA0
S113174A006F70657261636A61212841444D494E94
S113175A290020204E6965646F7A776F6C6F6E6119
S113176A20200020202020646F3A2041444D494E15
S113177A2020200050616C6563206E6965206E61CB
S113178A6C657A790070616C656320646C612041D0
S113179A444D494E3F002020437A79206E6164709B
S11317AA6973616320200042312D204E494520206F
S10B17BA42322D2054414B0082
S9030000FC
